{
  "_format": "hh-sol-artifact-1",
  "contractName": "PancakeSwapLottery",
  "sourceName": "contracts/PancakeSwapLottery.sol",
  "abi": [
    {
      "inputs": [
        {
          "internalType": "address",
          "name": "_cakeTokenAddress",
          "type": "address"
        },
        {
          "internalType": "address",
          "name": "_randomGeneratorAddress",
          "type": "address"
        }
      ],
      "stateMutability": "nonpayable",
      "type": "constructor"
    },
    {
      "anonymous": false,
      "inputs": [
        {
          "indexed": false,
          "internalType": "address",
          "name": "token",
          "type": "address"
        },
        {
          "indexed": false,
          "internalType": "uint256",
          "name": "amount",
          "type": "uint256"
        }
      ],
      "name": "AdminTokenRecovery",
      "type": "event"
    },
    {
      "anonymous": false,
      "inputs": [
        {
          "indexed": true,
          "internalType": "uint256",
          "name": "lotteryId",
          "type": "uint256"
        },
        {
          "indexed": false,
          "internalType": "uint256",
          "name": "firstTicketIdNextLottery",
          "type": "uint256"
        }
      ],
      "name": "LotteryClose",
      "type": "event"
    },
    {
      "anonymous": false,
      "inputs": [
        {
          "indexed": true,
          "internalType": "uint256",
          "name": "lotteryId",
          "type": "uint256"
        },
        {
          "indexed": false,
          "internalType": "uint256",
          "name": "injectedAmount",
          "type": "uint256"
        }
      ],
      "name": "LotteryInjection",
      "type": "event"
    },
    {
      "anonymous": false,
      "inputs": [
        {
          "indexed": true,
          "internalType": "uint256",
          "name": "lotteryId",
          "type": "uint256"
        },
        {
          "indexed": false,
          "internalType": "uint256",
          "name": "finalNumber",
          "type": "uint256"
        },
        {
          "indexed": false,
          "internalType": "uint256",
          "name": "countWinningTickets",
          "type": "uint256"
        }
      ],
      "name": "LotteryNumberDrawn",
      "type": "event"
    },
    {
      "anonymous": false,
      "inputs": [
        {
          "indexed": true,
          "internalType": "uint256",
          "name": "lotteryId",
          "type": "uint256"
        },
        {
          "indexed": false,
          "internalType": "uint256",
          "name": "startTime",
          "type": "uint256"
        },
        {
          "indexed": false,
          "internalType": "uint256",
          "name": "endTime",
          "type": "uint256"
        },
        {
          "indexed": false,
          "internalType": "uint256",
          "name": "priceTicketInCake",
          "type": "uint256"
        },
        {
          "indexed": false,
          "internalType": "uint256",
          "name": "firstTicketId",
          "type": "uint256"
        },
        {
          "indexed": false,
          "internalType": "uint256",
          "name": "injectedAmount",
          "type": "uint256"
        }
      ],
      "name": "LotteryOpen",
      "type": "event"
    },
    {
      "anonymous": false,
      "inputs": [
        {
          "indexed": false,
          "internalType": "address",
          "name": "operator",
          "type": "address"
        },
        {
          "indexed": false,
          "internalType": "address",
          "name": "treasury",
          "type": "address"
        },
        {
          "indexed": false,
          "internalType": "address",
          "name": "injector",
          "type": "address"
        }
      ],
      "name": "NewOperatorAndTreasuryAndInjectorAddresses",
      "type": "event"
    },
    {
      "anonymous": false,
      "inputs": [
        {
          "indexed": true,
          "internalType": "address",
          "name": "randomGenerator",
          "type": "address"
        }
      ],
      "name": "NewRandomGenerator",
      "type": "event"
    },
    {
      "anonymous": false,
      "inputs": [
        {
          "indexed": true,
          "internalType": "address",
          "name": "previousOwner",
          "type": "address"
        },
        {
          "indexed": true,
          "internalType": "address",
          "name": "newOwner",
          "type": "address"
        }
      ],
      "name": "OwnershipTransferred",
      "type": "event"
    },
    {
      "anonymous": false,
      "inputs": [
        {
          "indexed": true,
          "internalType": "address",
          "name": "claimer",
          "type": "address"
        },
        {
          "indexed": false,
          "internalType": "uint256",
          "name": "amount",
          "type": "uint256"
        },
        {
          "indexed": true,
          "internalType": "uint256",
          "name": "lotteryId",
          "type": "uint256"
        },
        {
          "indexed": false,
          "internalType": "uint256",
          "name": "numberTickets",
          "type": "uint256"
        }
      ],
      "name": "TicketsClaim",
      "type": "event"
    },
    {
      "anonymous": false,
      "inputs": [
        {
          "indexed": true,
          "internalType": "address",
          "name": "buyer",
          "type": "address"
        },
        {
          "indexed": true,
          "internalType": "uint256",
          "name": "lotteryId",
          "type": "uint256"
        },
        {
          "indexed": false,
          "internalType": "uint256",
          "name": "numberTickets",
          "type": "uint256"
        }
      ],
      "name": "TicketsPurchase",
      "type": "event"
    },
    {
      "inputs": [],
      "name": "MAX_LENGTH_LOTTERY",
      "outputs": [
        {
          "internalType": "uint256",
          "name": "",
          "type": "uint256"
        }
      ],
      "stateMutability": "view",
      "type": "function"
    },
    {
      "inputs": [],
      "name": "MAX_TREASURY_FEE",
      "outputs": [
        {
          "internalType": "uint256",
          "name": "",
          "type": "uint256"
        }
      ],
      "stateMutability": "view",
      "type": "function"
    },
    {
      "inputs": [],
      "name": "MIN_DISCOUNT_DIVISOR",
      "outputs": [
        {
          "internalType": "uint256",
          "name": "",
          "type": "uint256"
        }
      ],
      "stateMutability": "view",
      "type": "function"
    },
    {
      "inputs": [],
      "name": "MIN_LENGTH_LOTTERY",
      "outputs": [
        {
          "internalType": "uint256",
          "name": "",
          "type": "uint256"
        }
      ],
      "stateMutability": "view",
      "type": "function"
    },
    {
      "inputs": [
        {
          "internalType": "uint256",
          "name": "_lotteryId",
          "type": "uint256"
        },
        {
          "internalType": "uint32[]",
          "name": "_ticketNumbers",
          "type": "uint32[]"
        }
      ],
      "name": "buyTickets",
      "outputs": [],
      "stateMutability": "nonpayable",
      "type": "function"
    },
    {
      "inputs": [],
      "name": "cakeToken",
      "outputs": [
        {
          "internalType": "contract IERC20",
          "name": "",
          "type": "address"
        }
      ],
      "stateMutability": "view",
      "type": "function"
    },
    {
      "inputs": [
        {
          "internalType": "uint256",
          "name": "_discountDivisor",
          "type": "uint256"
        },
        {
          "internalType": "uint256",
          "name": "_priceTicket",
          "type": "uint256"
        },
        {
          "internalType": "uint256",
          "name": "_numberTickets",
          "type": "uint256"
        }
      ],
      "name": "calculateTotalPriceForBulkTickets",
      "outputs": [
        {
          "internalType": "uint256",
          "name": "",
          "type": "uint256"
        }
      ],
      "stateMutability": "pure",
      "type": "function"
    },
    {
      "inputs": [
        {
          "internalType": "address",
          "name": "_randomGeneratorAddress",
          "type": "address"
        }
      ],
      "name": "changeRandomGenerator",
      "outputs": [],
      "stateMutability": "nonpayable",
      "type": "function"
    },
    {
      "inputs": [
        {
          "internalType": "uint256",
          "name": "_lotteryId",
          "type": "uint256"
        },
        {
          "internalType": "uint256[]",
          "name": "_ticketIds",
          "type": "uint256[]"
        },
        {
          "internalType": "uint32[]",
          "name": "_brackets",
          "type": "uint32[]"
        }
      ],
      "name": "claimTickets",
      "outputs": [],
      "stateMutability": "nonpayable",
      "type": "function"
    },
    {
      "inputs": [
        {
          "internalType": "uint256",
          "name": "_lotteryId",
          "type": "uint256"
        }
      ],
      "name": "closeLottery",
      "outputs": [],
      "stateMutability": "nonpayable",
      "type": "function"
    },
    {
      "inputs": [],
      "name": "currentLotteryId",
      "outputs": [
        {
          "internalType": "uint256",
          "name": "",
          "type": "uint256"
        }
      ],
      "stateMutability": "view",
      "type": "function"
    },
    {
      "inputs": [],
      "name": "currentTicketId",
      "outputs": [
        {
          "internalType": "uint256",
          "name": "",
          "type": "uint256"
        }
      ],
      "stateMutability": "view",
      "type": "function"
    },
    {
      "inputs": [
        {
          "internalType": "uint256",
          "name": "_lotteryId",
          "type": "uint256"
        },
        {
          "internalType": "bool",
          "name": "_autoInjection",
          "type": "bool"
        }
      ],
      "name": "drawFinalNumberAndMakeLotteryClaimable",
      "outputs": [],
      "stateMutability": "nonpayable",
      "type": "function"
    },
    {
      "inputs": [
        {
          "internalType": "uint256",
          "name": "_lotteryId",
          "type": "uint256"
        },
        {
          "internalType": "uint256",
          "name": "_amount",
          "type": "uint256"
        }
      ],
      "name": "injectFunds",
      "outputs": [],
      "stateMutability": "nonpayable",
      "type": "function"
    },
    {
      "inputs": [],
      "name": "injectorAddress",
      "outputs": [
        {
          "internalType": "address",
          "name": "",
          "type": "address"
        }
      ],
      "stateMutability": "view",
      "type": "function"
    },
    {
      "inputs": [],
      "name": "maxNumberTicketsPerBuyOrClaim",
      "outputs": [
        {
          "internalType": "uint256",
          "name": "",
          "type": "uint256"
        }
      ],
      "stateMutability": "view",
      "type": "function"
    },
    {
      "inputs": [],
      "name": "maxPriceTicketInCake",
      "outputs": [
        {
          "internalType": "uint256",
          "name": "",
          "type": "uint256"
        }
      ],
      "stateMutability": "view",
      "type": "function"
    },
    {
      "inputs": [],
      "name": "minPriceTicketInCake",
      "outputs": [
        {
          "internalType": "uint256",
          "name": "",
          "type": "uint256"
        }
      ],
      "stateMutability": "view",
      "type": "function"
    },
    {
      "inputs": [],
      "name": "operatorAddress",
      "outputs": [
        {
          "internalType": "address",
          "name": "",
          "type": "address"
        }
      ],
      "stateMutability": "view",
      "type": "function"
    },
    {
      "inputs": [],
      "name": "owner",
      "outputs": [
        {
          "internalType": "address",
          "name": "",
          "type": "address"
        }
      ],
      "stateMutability": "view",
      "type": "function"
    },
    {
      "inputs": [],
      "name": "pendingInjectionNextLottery",
      "outputs": [
        {
          "internalType": "uint256",
          "name": "",
          "type": "uint256"
        }
      ],
      "stateMutability": "view",
      "type": "function"
    },
    {
      "inputs": [],
      "name": "randomGenerator",
      "outputs": [
        {
          "internalType": "contract IRandomNumberGenerator",
          "name": "",
          "type": "address"
        }
      ],
      "stateMutability": "view",
      "type": "function"
    },
    {
      "inputs": [
        {
          "internalType": "address",
          "name": "_tokenAddress",
          "type": "address"
        },
        {
          "internalType": "uint256",
          "name": "_tokenAmount",
          "type": "uint256"
        }
      ],
      "name": "recoverWrongTokens",
      "outputs": [],
      "stateMutability": "nonpayable",
      "type": "function"
    },
    {
      "inputs": [],
      "name": "renounceOwnership",
      "outputs": [],
      "stateMutability": "nonpayable",
      "type": "function"
    },
    {
      "inputs": [
        {
          "internalType": "uint256",
          "name": "_maxNumberTicketsPerBuy",
          "type": "uint256"
        }
      ],
      "name": "setMaxNumberTicketsPerBuy",
      "outputs": [],
      "stateMutability": "nonpayable",
      "type": "function"
    },
    {
      "inputs": [
        {
          "internalType": "uint256",
          "name": "_minPriceTicketInCake",
          "type": "uint256"
        },
        {
          "internalType": "uint256",
          "name": "_maxPriceTicketInCake",
          "type": "uint256"
        }
      ],
      "name": "setMinAndMaxTicketPriceInCake",
      "outputs": [],
      "stateMutability": "nonpayable",
      "type": "function"
    },
    {
      "inputs": [
        {
          "internalType": "address",
          "name": "_operatorAddress",
          "type": "address"
        },
        {
          "internalType": "address",
          "name": "_treasuryAddress",
          "type": "address"
        },
        {
          "internalType": "address",
          "name": "_injectorAddress",
          "type": "address"
        }
      ],
      "name": "setOperatorAndTreasuryAndInjectorAddresses",
      "outputs": [],
      "stateMutability": "nonpayable",
      "type": "function"
    },
    {
      "inputs": [
        {
          "internalType": "uint256",
          "name": "_endTime",
          "type": "uint256"
        },
        {
          "internalType": "uint256",
          "name": "_priceTicketInCake",
          "type": "uint256"
        },
        {
          "internalType": "uint256",
          "name": "_discountDivisor",
          "type": "uint256"
        },
        {
          "internalType": "uint256[6]",
          "name": "_rewardsBreakdown",
          "type": "uint256[6]"
        },
        {
          "internalType": "uint256",
          "name": "_treasuryFee",
          "type": "uint256"
        }
      ],
      "name": "startLottery",
      "outputs": [],
      "stateMutability": "nonpayable",
      "type": "function"
    },
    {
      "inputs": [
        {
          "internalType": "address",
          "name": "newOwner",
          "type": "address"
        }
      ],
      "name": "transferOwnership",
      "outputs": [],
      "stateMutability": "nonpayable",
      "type": "function"
    },
    {
      "inputs": [],
      "name": "treasuryAddress",
      "outputs": [
        {
          "internalType": "address",
          "name": "",
          "type": "address"
        }
      ],
      "stateMutability": "view",
      "type": "function"
    },
    {
      "inputs": [],
      "name": "viewCurrentLotteryId",
      "outputs": [
        {
          "internalType": "uint256",
          "name": "",
          "type": "uint256"
        }
      ],
      "stateMutability": "view",
      "type": "function"
    },
    {
      "inputs": [
        {
          "internalType": "uint256",
          "name": "_lotteryId",
          "type": "uint256"
        }
      ],
      "name": "viewLottery",
      "outputs": [
        {
          "components": [
            {
              "internalType": "enum PancakeSwapLottery.Status",
              "name": "status",
              "type": "uint8"
            },
            {
              "internalType": "uint256",
              "name": "startTime",
              "type": "uint256"
            },
            {
              "internalType": "uint256",
              "name": "endTime",
              "type": "uint256"
            },
            {
              "internalType": "uint256",
              "name": "priceTicketInCake",
              "type": "uint256"
            },
            {
              "internalType": "uint256",
              "name": "discountDivisor",
              "type": "uint256"
            },
            {
              "internalType": "uint256[6]",
              "name": "rewardsBreakdown",
              "type": "uint256[6]"
            },
            {
              "internalType": "uint256",
              "name": "treasuryFee",
              "type": "uint256"
            },
            {
              "internalType": "uint256[6]",
              "name": "cakePerBracket",
              "type": "uint256[6]"
            },
            {
              "internalType": "uint256[6]",
              "name": "countWinnersPerBracket",
              "type": "uint256[6]"
            },
            {
              "internalType": "uint256",
              "name": "firstTicketId",
              "type": "uint256"
            },
            {
              "internalType": "uint256",
              "name": "firstTicketIdNextLottery",
              "type": "uint256"
            },
            {
              "internalType": "uint256",
              "name": "amountCollectedInCake",
              "type": "uint256"
            },
            {
              "internalType": "uint32",
              "name": "finalNumber",
              "type": "uint32"
            }
          ],
          "internalType": "struct PancakeSwapLottery.Lottery",
          "name": "",
          "type": "tuple"
        }
      ],
      "stateMutability": "view",
      "type": "function"
    },
    {
      "inputs": [
        {
          "internalType": "uint256[]",
          "name": "_ticketIds",
          "type": "uint256[]"
        }
      ],
      "name": "viewNumbersAndStatusesForTicketIds",
      "outputs": [
        {
          "internalType": "uint32[]",
          "name": "",
          "type": "uint32[]"
        },
        {
          "internalType": "bool[]",
          "name": "",
          "type": "bool[]"
        }
      ],
      "stateMutability": "view",
      "type": "function"
    },
    {
      "inputs": [
        {
          "internalType": "uint256",
          "name": "_lotteryId",
          "type": "uint256"
        },
        {
          "internalType": "uint256",
          "name": "_ticketId",
          "type": "uint256"
        },
        {
          "internalType": "uint32",
          "name": "_bracket",
          "type": "uint32"
        }
      ],
      "name": "viewRewardsForTicketId",
      "outputs": [
        {
          "internalType": "uint256",
          "name": "",
          "type": "uint256"
        }
      ],
      "stateMutability": "view",
      "type": "function"
    },
    {
      "inputs": [
        {
          "internalType": "address",
          "name": "_user",
          "type": "address"
        },
        {
          "internalType": "uint256",
          "name": "_lotteryId",
          "type": "uint256"
        },
        {
          "internalType": "uint256",
          "name": "_cursor",
          "type": "uint256"
        },
        {
          "internalType": "uint256",
          "name": "_size",
          "type": "uint256"
        }
      ],
      "name": "viewUserInfoForLotteryId",
      "outputs": [
        {
          "internalType": "uint256[]",
          "name": "",
          "type": "uint256[]"
        },
        {
          "internalType": "uint32[]",
          "name": "",
          "type": "uint32[]"
        },
        {
          "internalType": "bool[]",
          "name": "",
          "type": "bool[]"
        },
        {
          "internalType": "uint256",
          "name": "",
          "type": "uint256"
        }
      ],
      "stateMutability": "view",
      "type": "function"
    }
  ],
  "bytecode": "0x608060405260646007556802b5e3af16b18800006008556611c37937e080006009553480156200002e57600080fd5b506040516200750738038062007507833981810160405281019062000054919062000315565b600160008190555060006200006e620002f660201b60201c565b905080600160006101000a81548173ffffffffffffffffffffffffffffffffffffffff021916908373ffffffffffffffffffffffffffffffffffffffff1602179055508073ffffffffffffffffffffffffffffffffffffffff16600073ffffffffffffffffffffffffffffffffffffffff167f8be0079c531659141344cd1fd0a4f28419497f9722a3daafe3b4186f6b6457e060405160405180910390a35081600b60006101000a81548173ffffffffffffffffffffffffffffffffffffffff021916908373ffffffffffffffffffffffffffffffffffffffff16021790555080600c60006101000a81548173ffffffffffffffffffffffffffffffffffffffff021916908373ffffffffffffffffffffffffffffffffffffffff1602179055506001600f60008063ffffffff16815260200190815260200160002060006101000a81548163ffffffff021916908363ffffffff160217905550600b600f6000600163ffffffff16815260200190815260200160002060006101000a81548163ffffffff021916908363ffffffff160217905550606f600f6000600263ffffffff16815260200190815260200160002060006101000a81548163ffffffff021916908363ffffffff160217905550610457600f6000600363ffffffff16815260200190815260200160002060006101000a81548163ffffffff021916908363ffffffff160217905550612b67600f6000600463ffffffff16815260200190815260200160002060006101000a81548163ffffffff021916908363ffffffff1602179055506201b207600f6000600563ffffffff16815260200190815260200160002060006101000a81548163ffffffff021916908363ffffffff1602179055505050620003a4565b600033905090565b6000815190506200030f816200038a565b92915050565b600080604083850312156200032957600080fd5b60006200033985828601620002fe565b92505060206200034c85828601620002fe565b9150509250929050565b600062000363826200036a565b9050919050565b600073ffffffffffffffffffffffffffffffffffffffff82169050919050565b620003958162000356565b8114620003a157600080fd5b50565b61715380620003b46000396000f3fe608060405234801561001057600080fd5b50600436106102115760003560e01c806388303dbd11610125578063c4937ab9116100ad578063da7429f81161007c578063da7429f8146105d0578063db19da0d146105ec578063dcbad90d1461060a578063f2b3c80914610628578063f2fde38b1461064657610211565b8063c4937ab91461054a578063c5f956af1461057a578063c914914f14610598578063da4ca039146105b457610211565b806398359fa1116100f457806398359fa1146104bc5780639c384653146104d85780639d8ca531146104f6578063b1829b8214610512578063c38de5391461052e57610211565b806388303dbd146104335780638904bf2f1461044f5780638da5cb5b1461046d5780638fc3539a1461048b57610211565b806331feb565116101a85780636b873788116101775780636b873788146103b35780636be4097c146103cf578063715018a6146103ed5780637cb583bd146103f757806380a061601461041557610211565b806331feb5651461033f5780633f138d4b1461035d578063471aeab414610379578063686465b81461039557610211565b80631f73664b116101e45780631f73664b146102a35780631fe86c6b146102c15780632423807a146102df5780632e530cae1461030f57610211565b806305531eeb1461021657806307fb5a9c14610249578063127effb21461026757806312a9769d14610285575b600080fd5b610230600480360381019061022b9190614e3a565b610662565b6040516102409493929190615c7d565b60405180910390f35b610251610b6e565b60405161025e91906162a2565b60405180910390f35b61026f610b74565b60405161027c9190615bcb565b60405180910390f35b61028d610b9a565b60405161029a91906162a2565b60405180910390f35b6102ab610ba0565b6040516102b891906162a2565b60405180910390f35b6102c9610ba6565b6040516102d691906162a2565b60405180910390f35b6102f960048036038101906102f49190614f0b565b610bac565b6040516103069190616286565b60405180910390f35b6103296004803603810190610324919061517e565b610da6565b60405161033691906162a2565b60405180910390f35b610347610ea9565b60405161035491906162a2565b60405180910390f35b61037760048036038101906103729190614dfe565b610eaf565b005b610393600480360381019061038e919061507a565b611024565b005b61039d61127f565b6040516103aa91906162a2565b60405180910390f35b6103cd60048036038101906103c89190614f0b565b611285565b005b6103d761134f565b6040516103e491906162a2565b60405180910390f35b6103f5611355565b005b6103ff611492565b60405161040c91906162a2565b60405180910390f35b61041d611498565b60405161042a91906162a2565b60405180910390f35b61044d60048036038101906104489190614fe6565b6114a2565b005b610457611cda565b6040516104649190615d0e565b60405180910390f35b610475611d00565b6040516104829190615bcb565b60405180910390f35b6104a560048036038101906104a09190614e9d565b611d2a565b6040516104b3929190615cd7565b60405180910390f35b6104d660048036038101906104d19190614d86565b61204d565b005b6104e0612340565b6040516104ed9190615bcb565b60405180910390f35b610510600480360381019061050b9190614f0b565b612366565b005b61052c60048036038101906105279190615105565b6126f3565b005b6105486004803603810190610543919061503e565b612e73565b005b610564600480360381019061055f91906150b6565b61378b565b60405161057191906162a2565b60405180910390f35b61058261382a565b60405161058f9190615bcb565b60405180910390f35b6105b260048036038101906105ad9190614f5d565b613850565b005b6105ce60048036038101906105c99190614daf565b614010565b005b6105ea60048036038101906105e5919061507a565b6142df565b005b6105f46143b0565b60405161060191906162a2565b60405180910390f35b6106126143b7565b60405161061f9190615d29565b60405180910390f35b6106306143dd565b60405161063d91906162a2565b60405180910390f35b610660600480360381019061065b9190614d86565b6143e3565b005b60608060606000808590506000601160008b73ffffffffffffffffffffffffffffffffffffffff1673ffffffffffffffffffffffffffffffffffffffff16815260200190815260200160002060008a815260200190815260200160002080549050905087816106d191906166dc565b8211156106e75787816106e491906166dc565b91505b60008267ffffffffffffffff811115610729577f4e487b7100000000000000000000000000000000000000000000000000000000600052604160045260246000fd5b6040519080825280602002602001820160405280156107575781602001602082028036833780820191505090505b50905060008367ffffffffffffffff81111561079c577f4e487b7100000000000000000000000000000000000000000000000000000000600052604160045260246000fd5b6040519080825280602002602001820160405280156107ca5781602001602082028036833780820191505090505b50905060008467ffffffffffffffff81111561080f577f4e487b7100000000000000000000000000000000000000000000000000000000600052604160045260246000fd5b60405190808252806020026020018201604052801561083d5781602001602082028036833780820191505090505b50905060005b85811015610b4657601160008f73ffffffffffffffffffffffffffffffffffffffff1673ffffffffffffffffffffffffffffffffffffffff16815260200190815260200160002060008e81526020019081526020016000208c826108a7919061646c565b815481106108de577f4e487b7100000000000000000000000000000000000000000000000000000000600052603260045260246000fd5b9060005260206000200154848281518110610922577f4e487b7100000000000000000000000000000000000000000000000000000000600052603260045260246000fd5b602002602001018181525050600e600085838151811061096b577f4e487b7100000000000000000000000000000000000000000000000000000000600052603260045260246000fd5b6020026020010151815260200190815260200160002060000160009054906101000a900463ffffffff168382815181106109ce577f4e487b7100000000000000000000000000000000000000000000000000000000600052603260045260246000fd5b602002602001019063ffffffff16908163ffffffff1681525050600073ffffffffffffffffffffffffffffffffffffffff16600e6000868481518110610a3d577f4e487b7100000000000000000000000000000000000000000000000000000000600052603260045260246000fd5b6020026020010151815260200190815260200160002060000160049054906101000a900473ffffffffffffffffffffffffffffffffffffffff1673ffffffffffffffffffffffffffffffffffffffff161415610ae5576001828281518110610ace577f4e487b7100000000000000000000000000000000000000000000000000000000600052603260045260246000fd5b602002602001019015159081151581525050610b33565b6000828281518110610b20577f4e487b7100000000000000000000000000000000000000000000000000000000600052603260045260246000fd5b6020026020010190151590811515815250505b8080610b3e9061684e565b915050610843565b50828282878e610b56919061646c565b98509850985098505050505050945094509450949050565b61371481565b600360009054906101000a900473ffffffffffffffffffffffffffffffffffffffff1681565b600a5481565b60085481565b60075481565b610bb4614b0a565b600d6000838152602001908152602001600020604051806101a00160405290816000820160009054906101000a900460ff166003811115610c1e577f4e487b7100000000000000000000000000000000000000000000000000000000600052602160045260246000fd5b6003811115610c56577f4e487b7100000000000000000000000000000000000000000000000000000000600052602160045260246000fd5b81526020016001820154815260200160028201548152602001600382015481526020016004820154815260200160058201600680602002604051908101604052809291908260068015610cbe576020028201915b815481526020019060010190808311610caa575b50505050508152602001600b8201548152602001600c8201600680602002604051908101604052809291908260068015610d0d576020028201915b815481526020019060010190808311610cf9575b5050505050815260200160128201600680602002604051908101604052809291908260068015610d52576020028201915b815481526020019060010190808311610d3e575b505050505081526020016018820154815260200160198201548152602001601a8201548152602001601b820160009054906101000a900463ffffffff1663ffffffff1663ffffffff16815250509050919050565b6000600380811115610de1577f4e487b7100000000000000000000000000000000000000000000000000000000600052602160045260246000fd5b600d600086815260200190815260200160002060000160009054906101000a900460ff166003811115610e3d577f4e487b7100000000000000000000000000000000000000000000000000000000600052602160045260246000fd5b14610e4b5760009050610ea2565b82600d600086815260200190815260200160002060190154108015610e86575082600d60008681526020019081526020016000206018015410155b15610e945760009050610ea2565b610e9f84848461458f565b90505b9392505050565b60095481565b610eb761472f565b73ffffffffffffffffffffffffffffffffffffffff16610ed5611d00565b73ffffffffffffffffffffffffffffffffffffffff1614610f2b576040517f08c379a0000000000000000000000000000000000000000000000000000000008152600401610f2290615f86565b60405180910390fd5b600b60009054906101000a900473ffffffffffffffffffffffffffffffffffffffff1673ffffffffffffffffffffffffffffffffffffffff168273ffffffffffffffffffffffffffffffffffffffff161415610fbc576040517f08c379a0000000000000000000000000000000000000000000000000000000008152600401610fb390616186565b60405180910390fd5b610fe733828473ffffffffffffffffffffffffffffffffffffffff166147379092919063ffffffff16565b7f74545154aac348a3eac92596bd1971957ca94795f4e954ec5f613b55fab781298282604051611018929190615c54565b60405180910390a15050565b61102c611d00565b73ffffffffffffffffffffffffffffffffffffffff163373ffffffffffffffffffffffffffffffffffffffff1614806110b25750600260009054906101000a900473ffffffffffffffffffffffffffffffffffffffff1673ffffffffffffffffffffffffffffffffffffffff163373ffffffffffffffffffffffffffffffffffffffff16145b6110f1576040517f08c379a00000000000000000000000000000000000000000000000000000000081526004016110e890616066565b60405180910390fd5b6001600381111561112b577f4e487b7100000000000000000000000000000000000000000000000000000000600052602160045260246000fd5b600d600084815260200190815260200160002060000160009054906101000a900460ff166003811115611187577f4e487b7100000000000000000000000000000000000000000000000000000000600052602160045260246000fd5b146111c7576040517f08c379a00000000000000000000000000000000000000000000000000000000081526004016111be90616046565b60405180910390fd5b611216333083600b60009054906101000a900473ffffffffffffffffffffffffffffffffffffffff1673ffffffffffffffffffffffffffffffffffffffff166147bd909392919063ffffffff16565b80600d6000848152602001908152602001600020601a01600082825461123c919061646c565b92505081905550817f1bbd659dd628a25f7ff2eabb69c74a56939c539728282275c1c9c1a2d3e340498260405161127391906162a2565b60405180910390a25050565b60065481565b61128d61472f565b73ffffffffffffffffffffffffffffffffffffffff166112ab611d00565b73ffffffffffffffffffffffffffffffffffffffff1614611301576040517f08c379a00000000000000000000000000000000000000000000000000000000081526004016112f890615f86565b60405180910390fd5b6000811415611345576040517f08c379a000000000000000000000000000000000000000000000000000000000815260040161133c90616006565b60405180910390fd5b8060078190555050565b60055481565b61135d61472f565b73ffffffffffffffffffffffffffffffffffffffff1661137b611d00565b73ffffffffffffffffffffffffffffffffffffffff16146113d1576040517f08c379a00000000000000000000000000000000000000000000000000000000081526004016113c890615f86565b60405180910390fd5b600073ffffffffffffffffffffffffffffffffffffffff16600160009054906101000a900473ffffffffffffffffffffffffffffffffffffffff1673ffffffffffffffffffffffffffffffffffffffff167f8be0079c531659141344cd1fd0a4f28419497f9722a3daafe3b4186f6b6457e060405160405180910390a36000600160006101000a81548173ffffffffffffffffffffffffffffffffffffffff021916908373ffffffffffffffffffffffffffffffffffffffff160217905550565b61012c81565b6000600554905090565b6114ab33614846565b156114eb576040517f08c379a00000000000000000000000000000000000000000000000000000000081526004016114e290615dc6565b60405180910390fd5b3273ffffffffffffffffffffffffffffffffffffffff163373ffffffffffffffffffffffffffffffffffffffff1614611559576040517f08c379a000000000000000000000000000000000000000000000000000000000815260040161155090615f66565b60405180910390fd5b6002600054141561159f576040517f08c379a0000000000000000000000000000000000000000000000000000000008152600401611596906161c6565b60405180910390fd5b600260008190555060008282905014156115ee576040517f08c379a00000000000000000000000000000000000000000000000000000000081526004016115e590615f06565b60405180910390fd5b600754828290501115611636576040517f08c379a000000000000000000000000000000000000000000000000000000000815260040161162d90616206565b60405180910390fd5b60016003811115611670577f4e487b7100000000000000000000000000000000000000000000000000000000600052602160045260246000fd5b600d600085815260200190815260200160002060000160009054906101000a900460ff1660038111156116cc577f4e487b7100000000000000000000000000000000000000000000000000000000600052602160045260246000fd5b1461170c576040517f08c379a000000000000000000000000000000000000000000000000000000000815260040161170390615fc6565b60405180910390fd5b600d6000848152602001908152602001600020600201544210611764576040517f08c379a000000000000000000000000000000000000000000000000000000000815260040161175b90615fa6565b60405180910390fd5b60006117a0600d600086815260200190815260200160002060040154600d60008781526020019081526020016000206003015485859050614859565b90506117f1333083600b60009054906101000a900473ffffffffffffffffffffffffffffffffffffffff1673ffffffffffffffffffffffffffffffffffffffff166147bd909392919063ffffffff16565b80600d6000868152602001908152602001600020601a016000828254611817919061646c565b9250508190555060005b83839050811015611c79576000848483818110611867577f4e487b7100000000000000000000000000000000000000000000000000000000600052603260045260246000fd5b905060200201602081019061187c91906151cd565b9050620f42408163ffffffff16101580156118a05750621e847f8163ffffffff1611155b6118df576040517f08c379a00000000000000000000000000000000000000000000000000000000081526004016118d690615f46565b60405180910390fd5b601060008781526020019081526020016000206000600a8361190191906168ce565b600161190d91906164c2565b63ffffffff1663ffffffff16815260200190815260200160002060008154809291906119389061684e565b919050555060106000878152602001908152602001600020600060648361195f91906168ce565b600b61196b91906164c2565b63ffffffff1663ffffffff16815260200190815260200160002060008154809291906119969061684e565b91905055506010600087815260200190815260200160002060006103e8836119be91906168ce565b606f6119ca91906164c2565b63ffffffff1663ffffffff16815260200190815260200160002060008154809291906119f59061684e565b919050555060106000878152602001908152602001600020600061271083611a1d91906168ce565b610457611a2a91906164c2565b63ffffffff1663ffffffff1681526020019081526020016000206000815480929190611a559061684e565b9190505550601060008781526020019081526020016000206000620186a083611a7e91906168ce565b612b67611a8b91906164c2565b63ffffffff1663ffffffff1681526020019081526020016000206000815480929190611ab69061684e565b9190505550601060008781526020019081526020016000206000620f424083611adf91906168ce565b6201b207611aed91906164c2565b63ffffffff1663ffffffff1681526020019081526020016000206000815480929190611b189061684e565b9190505550601160003373ffffffffffffffffffffffffffffffffffffffff1673ffffffffffffffffffffffffffffffffffffffff1681526020019081526020016000206000878152602001908152602001600020600654908060018154018082558091505060019003906000526020600020016000909190919091505560405180604001604052808263ffffffff1681526020013373ffffffffffffffffffffffffffffffffffffffff16815250600e6000600654815260200190815260200160002060008201518160000160006101000a81548163ffffffff021916908363ffffffff16021790555060208201518160000160046101000a81548173ffffffffffffffffffffffffffffffffffffffff021916908373ffffffffffffffffffffffffffffffffffffffff16021790555090505060066000815480929190611c609061684e565b9190505550508080611c719061684e565b915050611821565b50833373ffffffffffffffffffffffffffffffffffffffff167fd7d247b583de1023852eef87b48f54354dbec771d01bc2cc49e96094efc322b985859050604051611cc491906162a2565b60405180910390a3506001600081905550505050565b600b60009054906101000a900473ffffffffffffffffffffffffffffffffffffffff1681565b6000600160009054906101000a900473ffffffffffffffffffffffffffffffffffffffff16905090565b606080600084849050905060008167ffffffffffffffff811115611d77577f4e487b7100000000000000000000000000000000000000000000000000000000600052604160045260246000fd5b604051908082528060200260200182016040528015611da55781602001602082028036833780820191505090505b50905060008267ffffffffffffffff811115611dea577f4e487b7100000000000000000000000000000000000000000000000000000000600052604160045260246000fd5b604051908082528060200260200182016040528015611e185781602001602082028036833780820191505090505b50905060005b8381101561203c57600e6000898984818110611e63577f4e487b7100000000000000000000000000000000000000000000000000000000600052603260045260246000fd5b90506020020135815260200190815260200160002060000160009054906101000a900463ffffffff16838281518110611ec5577f4e487b7100000000000000000000000000000000000000000000000000000000600052603260045260246000fd5b602002602001019063ffffffff16908163ffffffff1681525050600073ffffffffffffffffffffffffffffffffffffffff16600e60008a8a85818110611f34577f4e487b7100000000000000000000000000000000000000000000000000000000600052603260045260246000fd5b90506020020135815260200190815260200160002060000160049054906101000a900473ffffffffffffffffffffffffffffffffffffffff1673ffffffffffffffffffffffffffffffffffffffff161415611fdb576001828281518110611fc4577f4e487b7100000000000000000000000000000000000000000000000000000000600052603260045260246000fd5b602002602001019015159081151581525050612029565b6000828281518110612016577f4e487b7100000000000000000000000000000000000000000000000000000000600052603260045260246000fd5b6020026020010190151590811515815250505b80806120349061684e565b915050611e1e565b508181945094505050509250929050565b61205561472f565b73ffffffffffffffffffffffffffffffffffffffff16612073611d00565b73ffffffffffffffffffffffffffffffffffffffff16146120c9576040517f08c379a00000000000000000000000000000000000000000000000000000000081526004016120c090615f86565b60405180910390fd5b600380811115612102577f4e487b7100000000000000000000000000000000000000000000000000000000600052602160045260246000fd5b600d6000600554815260200190815260200160002060000160009054906101000a900460ff166003811115612160577f4e487b7100000000000000000000000000000000000000000000000000000000600052602160045260246000fd5b146121a0576040517f08c379a0000000000000000000000000000000000000000000000000000000008152600401612197906160a6565b60405180910390fd5b8073ffffffffffffffffffffffffffffffffffffffff1663b37217a46005546006546040516020016121d3929190615b9f565b6040516020818303038152906040528051906020012060001c6040518263ffffffff1660e01b815260040161220891906162a2565b600060405180830381600087803b15801561222257600080fd5b505af1158015612236573d6000803e3d6000fd5b505050508073ffffffffffffffffffffffffffffffffffffffff1663a1c4f55a6040518163ffffffff1660e01b815260040160206040518083038186803b15801561228057600080fd5b505afa158015612294573d6000803e3d6000fd5b505050506040513d601f19601f820116820180604052508101906122b891906151f6565b5080600c60006101000a81548173ffffffffffffffffffffffffffffffffffffffff021916908373ffffffffffffffffffffffffffffffffffffffff1602179055508073ffffffffffffffffffffffffffffffffffffffff167f383f8cb39dfa7c3fb901a460dd449ea924868f0a92ff03da64740fffa5f1de6260405160405180910390a250565b600260009054906101000a900473ffffffffffffffffffffffffffffffffffffffff1681565b600360009054906101000a900473ffffffffffffffffffffffffffffffffffffffff1673ffffffffffffffffffffffffffffffffffffffff163373ffffffffffffffffffffffffffffffffffffffff16146123f6576040517f08c379a00000000000000000000000000000000000000000000000000000000081526004016123ed90616226565b60405180910390fd5b6002600054141561243c576040517f08c379a0000000000000000000000000000000000000000000000000000000008152600401612433906161c6565b60405180910390fd5b60026000819055506001600381111561247e577f4e487b7100000000000000000000000000000000000000000000000000000000600052602160045260246000fd5b600d600083815260200190815260200160002060000160009054906101000a900460ff1660038111156124da577f4e487b7100000000000000000000000000000000000000000000000000000000600052602160045260246000fd5b1461251a576040517f08c379a000000000000000000000000000000000000000000000000000000000815260040161251190616046565b60405180910390fd5b600d6000828152602001908152602001600020600201544211612572576040517f08c379a0000000000000000000000000000000000000000000000000000000008152600401612569906161a6565b60405180910390fd5b600654600d600083815260200190815260200160002060190181905550600c60009054906101000a900473ffffffffffffffffffffffffffffffffffffffff1673ffffffffffffffffffffffffffffffffffffffff1663b37217a4826006546040516020016125e2929190615b9f565b6040516020818303038152906040528051906020012060001c6040518263ffffffff1660e01b815260040161261791906162a2565b600060405180830381600087803b15801561263157600080fd5b505af1158015612645573d6000803e3d6000fd5b505050506002600d600083815260200190815260200160002060000160006101000a81548160ff021916908360038111156126a9577f4e487b7100000000000000000000000000000000000000000000000000000000600052602160045260246000fd5b0217905550807f3728e75294796694d59d2ffced9c394279baf7b9ebd2702db43f5f04bac679296006546040516126e091906162a2565b60405180910390a2600160008190555050565b600360009054906101000a900473ffffffffffffffffffffffffffffffffffffffff1673ffffffffffffffffffffffffffffffffffffffff163373ffffffffffffffffffffffffffffffffffffffff1614612783576040517f08c379a000000000000000000000000000000000000000000000000000000000815260040161277a90616226565b60405180910390fd5b6000600554148061282857506003808111156127c8577f4e487b7100000000000000000000000000000000000000000000000000000000600052602160045260246000fd5b600d6000600554815260200190815260200160002060000160009054906101000a900460ff166003811115612826577f4e487b7100000000000000000000000000000000000000000000000000000000600052602160045260246000fd5b145b612867576040517f08c379a000000000000000000000000000000000000000000000000000000000815260040161285e90615de6565b60405180910390fd5b613714428661287691906166dc565b11801561289057506205472c428661288e91906166dc565b105b6128cf576040517f08c379a00000000000000000000000000000000000000000000000000000000081526004016128c690616026565b60405180910390fd5b60095484101580156128e357506008548411155b612922576040517f08c379a000000000000000000000000000000000000000000000000000000000815260040161291990616086565b60405180910390fd5b61012c831015612967576040517f08c379a000000000000000000000000000000000000000000000000000000000815260040161295e906160c6565b60405180910390fd5b610bb88111156129ac576040517f08c379a00000000000000000000000000000000000000000000000000000000081526004016129a390615d86565b60405180910390fd5b612710826005600681106129e9577f4e487b7100000000000000000000000000000000000000000000000000000000600052603260045260246000fd5b602002013583600460068110612a28577f4e487b7100000000000000000000000000000000000000000000000000000000600052603260045260246000fd5b602002013584600360068110612a67577f4e487b7100000000000000000000000000000000000000000000000000000000600052603260045260246000fd5b602002013585600260068110612aa6577f4e487b7100000000000000000000000000000000000000000000000000000000600052603260045260246000fd5b602002013586600160068110612ae5577f4e487b7100000000000000000000000000000000000000000000000000000000600052603260045260246000fd5b602002013587600060068110612b24577f4e487b7100000000000000000000000000000000000000000000000000000000600052603260045260246000fd5b6020020135612b33919061646c565b612b3d919061646c565b612b47919061646c565b612b51919061646c565b612b5b919061646c565b14612b9b576040517f08c379a0000000000000000000000000000000000000000000000000000000008152600401612b9290615ee6565b60405180910390fd5b60056000815480929190612bae9061684e565b9190505550604051806101a0016040528060016003811115612bf9577f4e487b7100000000000000000000000000000000000000000000000000000000600052602160045260246000fd5b8152602001428152602001868152602001858152602001848152602001836006806020026040519081016040528092919082600660200280828437600081840152601f19601f82011690508083019250505050505081526020018281526020016040518060c001604052806000815260200160008152602001600081526020016000815260200160008152602001600081525081526020016040518060c0016040528060008152602001600081526020016000815260200160008152602001600081526020016000815250815260200160065481526020016006548152602001600a548152602001600063ffffffff16815250600d6000600554815260200190815260200160002060008201518160000160006101000a81548160ff02191690836003811115612d52577f4e487b7100000000000000000000000000000000000000000000000000000000600052602160045260246000fd5b02179055506020820151816001015560408201518160020155606082015181600301556080820151816004015560a082015181600501906006612d96929190614bc2565b5060c082015181600b015560e082015181600c01906006612db8929190614bc2565b5061010082015181601201906006612dd1929190614bc2565b506101208201518160180155610140820151816019015561016082015181601a015561018082015181601b0160006101000a81548163ffffffff021916908363ffffffff1602179055509050506005547f367e70f8c0e0c0a6504d92172bda155c02022d532fc85b5d66a9c49e31c8bc77428787600654600a54604051612e5c9594939291906162e6565b60405180910390a26000600a819055505050505050565b600360009054906101000a900473ffffffffffffffffffffffffffffffffffffffff1673ffffffffffffffffffffffffffffffffffffffff163373ffffffffffffffffffffffffffffffffffffffff1614612f03576040517f08c379a0000000000000000000000000000000000000000000000000000000008152600401612efa90616226565b60405180910390fd5b60026000541415612f49576040517f08c379a0000000000000000000000000000000000000000000000000000000008152600401612f40906161c6565b60405180910390fd5b600260008190555060026003811115612f8b577f4e487b7100000000000000000000000000000000000000000000000000000000600052602160045260246000fd5b600d600084815260200190815260200160002060000160009054906101000a900460ff166003811115612fe7577f4e487b7100000000000000000000000000000000000000000000000000000000600052602160045260246000fd5b14613027576040517f08c379a000000000000000000000000000000000000000000000000000000000815260040161301e906161e6565b60405180910390fd5b600c60009054906101000a900473ffffffffffffffffffffffffffffffffffffffff1673ffffffffffffffffffffffffffffffffffffffff1663fbe5d9176040518163ffffffff1660e01b815260040160206040518083038186803b15801561308f57600080fd5b505afa1580156130a3573d6000803e3d6000fd5b505050506040513d601f19601f820116820180604052508101906130c79190614f34565b8214613108576040517f08c379a00000000000000000000000000000000000000000000000000000000081526004016130ff90616146565b60405180910390fd5b6000600c60009054906101000a900473ffffffffffffffffffffffffffffffffffffffff1673ffffffffffffffffffffffffffffffffffffffff1663a1c4f55a6040518163ffffffff1660e01b815260040160206040518083038186803b15801561317257600080fd5b505afa158015613186573d6000803e3d6000fd5b505050506040513d601f19601f820116820180604052508101906131aa91906151f6565b9050600080612710600d6000878152602001908152602001600020600b01546127106131d691906166dc565b600d6000888152602001908152602001600020601a01546131f79190616682565b61320191906164fc565b9050600080600090505b60068163ffffffff1610156135f45760008160056132299190616710565b9050600060018261323a91906164c2565b600a6132469190616580565b8761325191906168ce565b600f60008463ffffffff1663ffffffff16815260200190815260200160002060009054906101000a900463ffffffff1661328b91906164c2565b905085601060008b815260200190815260200160002060008363ffffffff1663ffffffff168152602001908152602001600020546132c991906166dc565b600d60008b81526020019081526020016000206012018363ffffffff166006811061331d577f4e487b7100000000000000000000000000000000000000000000000000000000600052603260045260246000fd5b0181905550600086601060008c815260200190815260200160002060008463ffffffff1663ffffffff1681526020019081526020016000205461336091906166dc565b14613508576000600d60008b81526020019081526020016000206005018363ffffffff16600681106133bb577f4e487b7100000000000000000000000000000000000000000000000000000000600052603260045260246000fd5b0154146135035761271086601060008c815260200190815260200160002060008463ffffffff1663ffffffff1681526020019081526020016000205461340191906166dc565b86600d60008d81526020019081526020016000206005018563ffffffff1660068110613456577f4e487b7100000000000000000000000000000000000000000000000000000000600052603260045260246000fd5b01546134629190616682565b61346c91906164fc565b61347691906164fc565b600d60008b8152602001908152602001600020600c018363ffffffff16600681106134ca577f4e487b7100000000000000000000000000000000000000000000000000000000600052603260045260246000fd5b0181905550601060008a815260200190815260200160002060008263ffffffff1663ffffffff1681526020019081526020016000205495505b6135df565b6000600d60008b8152602001908152602001600020600c018363ffffffff166006811061355e577f4e487b7100000000000000000000000000000000000000000000000000000000600052603260045260246000fd5b018190555061271085600d60008c81526020019081526020016000206005018463ffffffff16600681106135bb577f4e487b7100000000000000000000000000000000000000000000000000000000600052603260045260246000fd5b01546135c79190616682565b6135d191906164fc565b846135dc919061646c565b93505b505080806135ec90616897565b91505061320b565b5083600d6000888152602001908152602001600020601b0160006101000a81548163ffffffff021916908363ffffffff1602179055506003600d600088815260200190815260200160002060000160006101000a81548160ff0219169083600381111561368a577f4e487b7100000000000000000000000000000000000000000000000000000000600052602160045260246000fd5b021790555084156136a15780600a81905550600090505b81600d6000888152602001908152602001600020601a01546136c391906166dc565b816136ce919061646c565b905061373f600460009054906101000a900473ffffffffffffffffffffffffffffffffffffffff1682600b60009054906101000a900473ffffffffffffffffffffffffffffffffffffffff1673ffffffffffffffffffffffffffffffffffffffff166147379092919063ffffffff16565b6005547f98e31a6607b8b15b4d5b91de54f4c09ffe4c4cf162aa532c70b5213754e2e7038585604051613773929190616339565b60405180910390a25050505060016000819055505050565b600061012c8410156137d2576040517f08c379a00000000000000000000000000000000000000000000000000000000081526004016137c990616266565b60405180910390fd5b6000821415613816576040517f08c379a000000000000000000000000000000000000000000000000000000000815260040161380d90616126565b60405180910390fd5b613821848484614859565b90509392505050565b600460009054906101000a900473ffffffffffffffffffffffffffffffffffffffff1681565b61385933614846565b15613899576040517f08c379a000000000000000000000000000000000000000000000000000000000815260040161389090615dc6565b60405180910390fd5b3273ffffffffffffffffffffffffffffffffffffffff163373ffffffffffffffffffffffffffffffffffffffff1614613907576040517f08c379a00000000000000000000000000000000000000000000000000000000081526004016138fe90615f66565b60405180910390fd5b6002600054141561394d576040517f08c379a0000000000000000000000000000000000000000000000000000000008152600401613944906161c6565b60405180910390fd5b600260008190555081819050848490501461399d576040517f08c379a000000000000000000000000000000000000000000000000000000000815260040161399490615e66565b60405180910390fd5b60008484905014156139e4576040517f08c379a00000000000000000000000000000000000000000000000000000000081526004016139db90615d66565b60405180910390fd5b600754848490501115613a2c576040517f08c379a0000000000000000000000000000000000000000000000000000000008152600401613a2390616206565b60405180910390fd5b600380811115613a65577f4e487b7100000000000000000000000000000000000000000000000000000000600052602160045260246000fd5b600d600087815260200190815260200160002060000160009054906101000a900460ff166003811115613ac1577f4e487b7100000000000000000000000000000000000000000000000000000000600052602160045260246000fd5b14613b01576040517f08c379a0000000000000000000000000000000000000000000000000000000008152600401613af890615ea6565b60405180910390fd5b600080600090505b85859050811015613f5e576006848483818110613b4f577f4e487b7100000000000000000000000000000000000000000000000000000000600052603260045260246000fd5b9050602002016020810190613b6491906151cd565b63ffffffff1610613baa576040517f08c379a0000000000000000000000000000000000000000000000000000000008152600401613ba190615e06565b60405180910390fd5b6000868683818110613be5577f4e487b7100000000000000000000000000000000000000000000000000000000600052603260045260246000fd5b90506020020135905080600d60008a81526020019081526020016000206019015411613c46576040517f08c379a0000000000000000000000000000000000000000000000000000000008152600401613c3d90615e46565b60405180910390fd5b80600d60008a8152602001908152602001600020601801541115613c9f576040517f08c379a0000000000000000000000000000000000000000000000000000000008152600401613c9690616246565b60405180910390fd5b600e600082815260200190815260200160002060000160049054906101000a900473ffffffffffffffffffffffffffffffffffffffff1673ffffffffffffffffffffffffffffffffffffffff163373ffffffffffffffffffffffffffffffffffffffff1614613d43576040517f08c379a0000000000000000000000000000000000000000000000000000000008152600401613d3a90615f26565b60405180910390fd5b6000600e600083815260200190815260200160002060000160046101000a81548173ffffffffffffffffffffffffffffffffffffffff021916908373ffffffffffffffffffffffffffffffffffffffff1602179055506000613df38983888887818110613dd9577f4e487b7100000000000000000000000000000000000000000000000000000000600052603260045260246000fd5b9050602002016020810190613dee91906151cd565b61458f565b90506000811415613e39576040517f08c379a0000000000000000000000000000000000000000000000000000000008152600401613e3090615e26565b60405180910390fd5b6005868685818110613e74577f4e487b7100000000000000000000000000000000000000000000000000000000600052603260045260246000fd5b9050602002016020810190613e8991906151cd565b63ffffffff1614613f3b576000613efa8a8460018a8a89818110613ed6577f4e487b7100000000000000000000000000000000000000000000000000000000600052603260045260246000fd5b9050602002016020810190613eeb91906151cd565b613ef591906164c2565b61458f565b14613f3a576040517f08c379a0000000000000000000000000000000000000000000000000000000008152600401613f3190616106565b60405180910390fd5b5b8084613f47919061646c565b935050508080613f569061684e565b915050613b09565b50613fac3382600b60009054906101000a900473ffffffffffffffffffffffffffffffffffffffff1673ffffffffffffffffffffffffffffffffffffffff166147379092919063ffffffff16565b853373ffffffffffffffffffffffffffffffffffffffff167f0f5fca62da8fb5d95525b49e5eaa7b20bc6bd9e2f6b64b493442d1c0bd6ef4868388889050604051613ff89291906162bd565b60405180910390a35060016000819055505050505050565b61401861472f565b73ffffffffffffffffffffffffffffffffffffffff16614036611d00565b73ffffffffffffffffffffffffffffffffffffffff161461408c576040517f08c379a000000000000000000000000000000000000000000000000000000000815260040161408390615f86565b60405180910390fd5b600073ffffffffffffffffffffffffffffffffffffffff168373ffffffffffffffffffffffffffffffffffffffff1614156140fc576040517f08c379a00000000000000000000000000000000000000000000000000000000081526004016140f390615ec6565b60405180910390fd5b600073ffffffffffffffffffffffffffffffffffffffff168273ffffffffffffffffffffffffffffffffffffffff16141561416c576040517f08c379a000000000000000000000000000000000000000000000000000000000815260040161416390615ec6565b60405180910390fd5b600073ffffffffffffffffffffffffffffffffffffffff168173ffffffffffffffffffffffffffffffffffffffff1614156141dc576040517f08c379a00000000000000000000000000000000000000000000000000000000081526004016141d390615ec6565b60405180910390fd5b82600360006101000a81548173ffffffffffffffffffffffffffffffffffffffff021916908373ffffffffffffffffffffffffffffffffffffffff16021790555081600460006101000a81548173ffffffffffffffffffffffffffffffffffffffff021916908373ffffffffffffffffffffffffffffffffffffffff16021790555080600260006101000a81548173ffffffffffffffffffffffffffffffffffffffff021916908373ffffffffffffffffffffffffffffffffffffffff1602179055507f3e945b7660001d46cfd5e729545f7f0b6c65bdee54066a91c7acad703f1b731e8383836040516142d293929190615be6565b60405180910390a1505050565b6142e761472f565b73ffffffffffffffffffffffffffffffffffffffff16614305611d00565b73ffffffffffffffffffffffffffffffffffffffff161461435b576040517f08c379a000000000000000000000000000000000000000000000000000000000815260040161435290615f86565b60405180910390fd5b8082111561439e576040517f08c379a000000000000000000000000000000000000000000000000000000000815260040161439590615fe6565b60405180910390fd5b81600981905550806008819055505050565b6205472c81565b600c60009054906101000a900473ffffffffffffffffffffffffffffffffffffffff1681565b610bb881565b6143eb61472f565b73ffffffffffffffffffffffffffffffffffffffff16614409611d00565b73ffffffffffffffffffffffffffffffffffffffff161461445f576040517f08c379a000000000000000000000000000000000000000000000000000000000815260040161445690615f86565b60405180910390fd5b600073ffffffffffffffffffffffffffffffffffffffff168173ffffffffffffffffffffffffffffffffffffffff1614156144cf576040517f08c379a00000000000000000000000000000000000000000000000000000000081526004016144c690615da6565b60405180910390fd5b8073ffffffffffffffffffffffffffffffffffffffff16600160009054906101000a900473ffffffffffffffffffffffffffffffffffffffff1673ffffffffffffffffffffffffffffffffffffffff167f8be0079c531659141344cd1fd0a4f28419497f9722a3daafe3b4186f6b6457e060405160405180910390a380600160006101000a81548173ffffffffffffffffffffffffffffffffffffffff021916908373ffffffffffffffffffffffffffffffffffffffff16021790555050565b600080600d6000868152602001908152602001600020601b0160009054906101000a900463ffffffff1690506000600e600086815260200190815260200160002060000160009054906101000a900463ffffffff16905060006001856145f591906164c2565b600a6146019190616580565b8261460c91906168ce565b600f60008763ffffffff1663ffffffff16815260200190815260200160002060009054906101000a900463ffffffff1661464691906164c2565b9050600060018661465791906164c2565b600a6146639190616580565b8461466e91906168ce565b600f60008863ffffffff1663ffffffff16815260200190815260200160002060009054906101000a900463ffffffff166146a891906164c2565b90508063ffffffff168263ffffffff16141561471f57600d6000898152602001908152602001600020600c018663ffffffff1660068110614712577f4e487b7100000000000000000000000000000000000000000000000000000000600052603260045260246000fd5b0154945050505050614728565b60009450505050505b9392505050565b600033905090565b6147b88363a9059cbb60e01b8484604051602401614756929190615c54565b604051602081830303815290604052907bffffffffffffffffffffffffffffffffffffffffffffffffffffffff19166020820180517bffffffffffffffffffffffffffffffffffffffffffffffffffffffff838183161783525050505061489d565b505050565b614840846323b872dd60e01b8585856040516024016147de93929190615c1d565b604051602081830303815290604052907bffffffffffffffffffffffffffffffffffffffffffffffffffffffff19166020820180517bffffffffffffffffffffffffffffffffffffffffffffffffffffffff838183161783525050505061489d565b50505050565b600080823b905060008111915050919050565b6000838260018661486a919061646c565b61487491906166dc565b83856148809190616682565b61488a9190616682565b61489491906164fc565b90509392505050565b60006148ff826040518060400160405280602081526020017f5361666545524332303a206c6f772d6c6576656c2063616c6c206661696c65648152508573ffffffffffffffffffffffffffffffffffffffff166149649092919063ffffffff16565b905060008151111561495f578080602001905181019061491f9190614ee2565b61495e576040517f08c379a000000000000000000000000000000000000000000000000000000000815260040161495590616166565b60405180910390fd5b5b505050565b6060614973848460008561497c565b90509392505050565b6060824710156149c1576040517f08c379a00000000000000000000000000000000000000000000000000000000081526004016149b890615e86565b60405180910390fd5b6149ca85614a90565b614a09576040517f08c379a0000000000000000000000000000000000000000000000000000000008152600401614a00906160e6565b60405180910390fd5b6000808673ffffffffffffffffffffffffffffffffffffffff168587604051614a329190615b88565b60006040518083038185875af1925050503d8060008114614a6f576040519150601f19603f3d011682016040523d82523d6000602084013e614a74565b606091505b5091509150614a84828286614aa3565b92505050949350505050565b600080823b905060008111915050919050565b60608315614ab357829050614b03565b600083511115614ac65782518084602001fd5b816040517f08c379a0000000000000000000000000000000000000000000000000000000008152600401614afa9190615d44565b60405180910390fd5b9392505050565b604051806101a0016040528060006003811115614b50577f4e487b7100000000000000000000000000000000000000000000000000000000600052602160045260246000fd5b815260200160008152602001600081526020016000815260200160008152602001614b79614c02565b815260200160008152602001614b8d614c02565b8152602001614b9a614c02565b8152602001600081526020016000815260200160008152602001600063ffffffff1681525090565b8260068101928215614bf1579160200282015b82811115614bf0578251825591602001919060010190614bd5565b5b509050614bfe9190614c24565b5090565b6040518060c00160405280600690602082028036833780820191505090505090565b5b80821115614c3d576000816000905550600101614c25565b5090565b600081359050614c50816170c1565b92915050565b600081905082602060060282011115614c6e57600080fd5b92915050565b60008083601f840112614c8657600080fd5b8235905067ffffffffffffffff811115614c9f57600080fd5b602083019150836020820283011115614cb757600080fd5b9250929050565b60008083601f840112614cd057600080fd5b8235905067ffffffffffffffff811115614ce957600080fd5b602083019150836020820283011115614d0157600080fd5b9250929050565b600081359050614d17816170d8565b92915050565b600081519050614d2c816170d8565b92915050565b600081359050614d41816170ef565b92915050565b600081519050614d56816170ef565b92915050565b600081359050614d6b81617106565b92915050565b600081519050614d8081617106565b92915050565b600060208284031215614d9857600080fd5b6000614da684828501614c41565b91505092915050565b600080600060608486031215614dc457600080fd5b6000614dd286828701614c41565b9350506020614de386828701614c41565b9250506040614df486828701614c41565b9150509250925092565b60008060408385031215614e1157600080fd5b6000614e1f85828601614c41565b9250506020614e3085828601614d32565b9150509250929050565b60008060008060808587031215614e5057600080fd5b6000614e5e87828801614c41565b9450506020614e6f87828801614d32565b9350506040614e8087828801614d32565b9250506060614e9187828801614d32565b91505092959194509250565b60008060208385031215614eb057600080fd5b600083013567ffffffffffffffff811115614eca57600080fd5b614ed685828601614c74565b92509250509250929050565b600060208284031215614ef457600080fd5b6000614f0284828501614d1d565b91505092915050565b600060208284031215614f1d57600080fd5b6000614f2b84828501614d32565b91505092915050565b600060208284031215614f4657600080fd5b6000614f5484828501614d47565b91505092915050565b600080600080600060608688031215614f7557600080fd5b6000614f8388828901614d32565b955050602086013567ffffffffffffffff811115614fa057600080fd5b614fac88828901614c74565b9450945050604086013567ffffffffffffffff811115614fcb57600080fd5b614fd788828901614cbe565b92509250509295509295909350565b600080600060408486031215614ffb57600080fd5b600061500986828701614d32565b935050602084013567ffffffffffffffff81111561502657600080fd5b61503286828701614cbe565b92509250509250925092565b6000806040838503121561505157600080fd5b600061505f85828601614d32565b925050602061507085828601614d08565b9150509250929050565b6000806040838503121561508d57600080fd5b600061509b85828601614d32565b92505060206150ac85828601614d32565b9150509250929050565b6000806000606084860312156150cb57600080fd5b60006150d986828701614d32565b93505060206150ea86828701614d32565b92505060406150fb86828701614d32565b9150509250925092565b6000806000806000610140868803121561511e57600080fd5b600061512c88828901614d32565b955050602061513d88828901614d32565b945050604061514e88828901614d32565b935050606061515f88828901614c56565b92505061012061517188828901614d32565b9150509295509295909350565b60008060006060848603121561519357600080fd5b60006151a186828701614d32565b93505060206151b286828701614d32565b92505060406151c386828701614d5c565b9150509250925092565b6000602082840312156151df57600080fd5b60006151ed84828501614d5c565b91505092915050565b60006020828403121561520857600080fd5b600061521684828501614d71565b91505092915050565b600061522b83836153e7565b60208301905092915050565b60006152438383615b35565b60208301905092915050565b600061525b8383615b79565b60208301905092915050565b61527081616744565b82525050565b60006152818261639c565b61528b8185616412565b935061529683616362565b8060005b838110156152c75781516152ae888261521f565b97506152b9836163de565b92505060018101905061529a565b5085935050505092915050565b6152dd816163a7565b6152e78184616423565b92506152f282616372565b8060005b8381101561532357815161530a8782615237565b9650615315836163eb565b9250506001810190506152f6565b505050505050565b6000615336826163b2565b615340818561642e565b935061534b8361637c565b8060005b8381101561537c5781516153638882615237565b975061536e836163f8565b92505060018101905061534f565b5085935050505092915050565b6000615394826163bd565b61539e818561643f565b93506153a98361638c565b8060005b838110156153da5781516153c1888261524f565b97506153cc83616405565b9250506001810190506153ad565b5085935050505092915050565b6153f081616756565b82525050565b6000615401826163c8565b61540b8185616450565b935061541b81856020860161681b565b80840191505092915050565b615430816167af565b82525050565b61543f816167d3565b82525050565b61544e816167f7565b82525050565b600061545f826163d3565b615469818561645b565b935061547981856020860161681b565b6154828161698c565b840191505092915050565b600061549a60118361645b565b91506154a5826169aa565b602082019050919050565b60006154bd60158361645b565b91506154c8826169d3565b602082019050919050565b60006154e060268361645b565b91506154eb826169fc565b604082019050919050565b600061550360148361645b565b915061550e82616a4b565b602082019050919050565b600061552660198361645b565b915061553182616a74565b602082019050919050565b600061554960148361645b565b915061555482616a9d565b602082019050919050565b600061556c60198361645b565b915061557782616ac6565b602082019050919050565b600061558f60118361645b565b915061559a82616aef565b602082019050919050565b60006155b2600f8361645b565b91506155bd82616b18565b602082019050919050565b60006155d560268361645b565b91506155e082616b41565b604082019050919050565b60006155f860158361645b565b915061560382616b90565b602082019050919050565b600061561b60168361645b565b915061562682616bb9565b602082019050919050565b600061563e60188361645b565b915061564982616be2565b602082019050919050565b600061566160138361645b565b915061566c82616c0b565b602082019050919050565b6000615684600d8361645b565b915061568f82616c34565b602082019050919050565b60006156a7600d8361645b565b91506156b282616c5d565b602082019050919050565b60006156ca601a8361645b565b91506156d582616c86565b602082019050919050565b60006156ed60208361645b565b91506156f882616caf565b602082019050919050565b6000615710600f8361645b565b915061571b82616cd8565b602082019050919050565b600061573360138361645b565b915061573e82616d01565b602082019050919050565b6000615756601b8361645b565b915061576182616d2a565b602082019050919050565b6000615779600b8361645b565b915061578482616d53565b602082019050919050565b600061579c601f8361645b565b91506157a782616d7c565b602082019050919050565b60006157bf60108361645b565b91506157ca82616da5565b602082019050919050565b60006157e260158361645b565b91506157ed82616dce565b602082019050919050565b600061580560118361645b565b915061581082616df7565b602082019050919050565b600061582860188361645b565b915061583382616e20565b602082019050919050565b600061584b60188361645b565b915061585682616e49565b602082019050919050565b600061586e601d8361645b565b915061587982616e72565b602082019050919050565b600061589160168361645b565b915061589c82616e9b565b602082019050919050565b60006158b4601d8361645b565b91506158bf82616ec4565b602082019050919050565b60006158d760118361645b565b91506158e282616eed565b602082019050919050565b60006158fa602a8361645b565b915061590582616f16565b604082019050919050565b600061591d60148361645b565b915061592882616f65565b602082019050919050565b600061594060108361645b565b915061594b82616f8e565b602082019050919050565b6000615963601f8361645b565b915061596e82616fb7565b602082019050919050565b600061598660118361645b565b915061599182616fe0565b602082019050919050565b60006159a960108361645b565b91506159b482617009565b602082019050919050565b60006159cc600c8361645b565b91506159d782617032565b602082019050919050565b60006159ef60108361645b565b91506159fa8261705b565b602082019050919050565b6000615a12601f8361645b565b9150615a1d82617084565b602082019050919050565b61038082016000820151615a3f6000850182615445565b506020820151615a526020850182615b35565b506040820151615a656040850182615b35565b506060820151615a786060850182615b35565b506080820151615a8b6080850182615b35565b5060a0820151615a9e60a08501826152d4565b5060c0820151615ab2610160850182615b35565b5060e0820151615ac66101808501826152d4565b50610100820151615adb6102408501826152d4565b50610120820151615af0610300850182615b35565b50610140820151615b05610320850182615b35565b50610160820151615b1a610340850182615b35565b50610180820151615b2f610360850182615b79565b50505050565b615b3e81616795565b82525050565b615b4d81616795565b82525050565b615b64615b5f82616795565b6168c4565b82525050565b615b7381616809565b82525050565b615b828161679f565b82525050565b6000615b9482846153f6565b915081905092915050565b6000615bab8285615b53565b602082019150615bbb8284615b53565b6020820191508190509392505050565b6000602082019050615be06000830184615267565b92915050565b6000606082019050615bfb6000830186615267565b615c086020830185615267565b615c156040830184615267565b949350505050565b6000606082019050615c326000830186615267565b615c3f6020830185615267565b615c4c6040830184615b44565b949350505050565b6000604082019050615c696000830185615267565b615c766020830184615b44565b9392505050565b60006080820190508181036000830152615c97818761532b565b90508181036020830152615cab8186615389565b90508181036040830152615cbf8185615276565b9050615cce6060830184615b44565b95945050505050565b60006040820190508181036000830152615cf18185615389565b90508181036020830152615d058184615276565b90509392505050565b6000602082019050615d236000830184615427565b92915050565b6000602082019050615d3e6000830184615436565b92915050565b60006020820190508181036000830152615d5e8184615454565b905092915050565b60006020820190508181036000830152615d7f8161548d565b9050919050565b60006020820190508181036000830152615d9f816154b0565b9050919050565b60006020820190508181036000830152615dbf816154d3565b9050919050565b60006020820190508181036000830152615ddf816154f6565b9050919050565b60006020820190508181036000830152615dff81615519565b9050919050565b60006020820190508181036000830152615e1f8161553c565b9050919050565b60006020820190508181036000830152615e3f8161555f565b9050919050565b60006020820190508181036000830152615e5f81615582565b9050919050565b60006020820190508181036000830152615e7f816155a5565b9050919050565b60006020820190508181036000830152615e9f816155c8565b9050919050565b60006020820190508181036000830152615ebf816155eb565b9050919050565b60006020820190508181036000830152615edf8161560e565b9050919050565b60006020820190508181036000830152615eff81615631565b9050919050565b60006020820190508181036000830152615f1f81615654565b9050919050565b60006020820190508181036000830152615f3f81615677565b9050919050565b60006020820190508181036000830152615f5f8161569a565b9050919050565b60006020820190508181036000830152615f7f816156bd565b9050919050565b60006020820190508181036000830152615f9f816156e0565b9050919050565b60006020820190508181036000830152615fbf81615703565b9050919050565b60006020820190508181036000830152615fdf81615726565b9050919050565b60006020820190508181036000830152615fff81615749565b9050919050565b6000602082019050818103600083015261601f8161576c565b9050919050565b6000602082019050818103600083015261603f8161578f565b9050919050565b6000602082019050818103600083015261605f816157b2565b9050919050565b6000602082019050818103600083015261607f816157d5565b9050919050565b6000602082019050818103600083015261609f816157f8565b9050919050565b600060208201905081810360008301526160bf8161581b565b9050919050565b600060208201905081810360008301526160df8161583e565b9050919050565b600060208201905081810360008301526160ff81615861565b9050919050565b6000602082019050818103600083015261611f81615884565b9050919050565b6000602082019050818103600083015261613f816158a7565b9050919050565b6000602082019050818103600083015261615f816158ca565b9050919050565b6000602082019050818103600083015261617f816158ed565b9050919050565b6000602082019050818103600083015261619f81615910565b9050919050565b600060208201905081810360008301526161bf81615933565b9050919050565b600060208201905081810360008301526161df81615956565b9050919050565b600060208201905081810360008301526161ff81615979565b9050919050565b6000602082019050818103600083015261621f8161599c565b9050919050565b6000602082019050818103600083015261623f816159bf565b9050919050565b6000602082019050818103600083015261625f816159e2565b9050919050565b6000602082019050818103600083015261627f81615a05565b9050919050565b60006103808201905061629c6000830184615a28565b92915050565b60006020820190506162b76000830184615b44565b92915050565b60006040820190506162d26000830185615b44565b6162df6020830184615b44565b9392505050565b600060a0820190506162fb6000830188615b44565b6163086020830187615b44565b6163156040830186615b44565b6163226060830185615b44565b61632f6080830184615b44565b9695505050505050565b600060408201905061634e6000830185615b6a565b61635b6020830184615b44565b9392505050565b6000819050602082019050919050565b6000819050919050565b6000819050602082019050919050565b6000819050602082019050919050565b600081519050919050565b600060069050919050565b600081519050919050565b600081519050919050565b600081519050919050565b600081519050919050565b6000602082019050919050565b6000602082019050919050565b6000602082019050919050565b6000602082019050919050565b600082825260208201905092915050565b600081905092915050565b600082825260208201905092915050565b600082825260208201905092915050565b600081905092915050565b600082825260208201905092915050565b600061647782616795565b915061648283616795565b9250827fffffffffffffffffffffffffffffffffffffffffffffffffffffffffffffffff038211156164b7576164b66168ff565b5b828201905092915050565b60006164cd8261679f565b91506164d88361679f565b92508263ffffffff038211156164f1576164f06168ff565b5b828201905092915050565b600061650782616795565b915061651283616795565b9250826165225761652161692e565b5b828204905092915050565b6000808291508390505b600185111561657757808604811115616553576165526168ff565b5b60018516156165625780820291505b80810290506165708561699d565b9450616537565b94509492505050565b600061658b8261679f565b91506165968361679f565b92506165a763ffffffff84846165af565b905092915050565b6000826165bf576001905061667b565b816165cd576000905061667b565b81600181146165e357600281146165ed5761661c565b600191505061667b565b60ff8411156165ff576165fe6168ff565b5b8360020a915084821115616616576166156168ff565b5b5061667b565b5060208310610133831016604e8410600b84101617156166515782820a90508381111561664c5761664b6168ff565b5b61667b565b61665e848484600161652d565b92509050818404811115616675576166746168ff565b5b81810290505b9392505050565b600061668d82616795565b915061669883616795565b9250817fffffffffffffffffffffffffffffffffffffffffffffffffffffffffffffffff04831182151516156166d1576166d06168ff565b5b828202905092915050565b60006166e782616795565b91506166f283616795565b925082821015616705576167046168ff565b5b828203905092915050565b600061671b8261679f565b91506167268361679f565b925082821015616739576167386168ff565b5b828203905092915050565b600061674f82616775565b9050919050565b60008115159050919050565b6000819050616770826170ad565b919050565b600073ffffffffffffffffffffffffffffffffffffffff82169050919050565b6000819050919050565b600063ffffffff82169050919050565b60006167ba826167c1565b9050919050565b60006167cc82616775565b9050919050565b60006167de826167e5565b9050919050565b60006167f082616775565b9050919050565b600061680282616762565b9050919050565b60006168148261679f565b9050919050565b60005b8381101561683957808201518184015260208101905061681e565b83811115616848576000848401525b50505050565b600061685982616795565b91507fffffffffffffffffffffffffffffffffffffffffffffffffffffffffffffffff82141561688c5761688b6168ff565b5b600182019050919050565b60006168a28261679f565b915063ffffffff8214156168b9576168b86168ff565b5b600182019050919050565b6000819050919050565b60006168d98261679f565b91506168e48361679f565b9250826168f4576168f361692e565b5b828206905092915050565b7f4e487b7100000000000000000000000000000000000000000000000000000000600052601160045260246000fd5b7f4e487b7100000000000000000000000000000000000000000000000000000000600052601260045260246000fd5b7f4e487b7100000000000000000000000000000000000000000000000000000000600052602160045260246000fd5b6000601f19601f8301169050919050565b60008160011c9050919050565b7f4c656e677468206d757374206265203e30000000000000000000000000000000600082015250565b7f54726561737572792066656520746f6f20686967680000000000000000000000600082015250565b7f4f776e61626c653a206e6577206f776e657220697320746865207a65726f206160008201527f6464726573730000000000000000000000000000000000000000000000000000602082015250565b7f436f6e7472616374206e6f7420616c6c6f776564000000000000000000000000600082015250565b7f4e6f742074696d6520746f207374617274206c6f747465727900000000000000600082015250565b7f427261636b6574206f7574206f662072616e6765000000000000000000000000600082015250565b7f4e6f207072697a6520666f72207468697320627261636b657400000000000000600082015250565b7f5469636b6574496420746f6f2068696768000000000000000000000000000000600082015250565b7f4e6f742073616d65206c656e6774680000000000000000000000000000000000600082015250565b7f416464726573733a20696e73756666696369656e742062616c616e636520666f60008201527f722063616c6c0000000000000000000000000000000000000000000000000000602082015250565b7f4c6f7474657279206e6f7420636c61696d61626c650000000000000000000000600082015250565b7f43616e6e6f74206265207a65726f206164647265737300000000000000000000600082015250565b7f52657761726473206d75737420657175616c2031303030300000000000000000600082015250565b7f4e6f207469636b65742073706563696669656400000000000000000000000000600082015250565b7f4e6f7420746865206f776e657200000000000000000000000000000000000000600082015250565b7f4f7574736964652072616e676500000000000000000000000000000000000000600082015250565b7f50726f787920636f6e7472616374206e6f7420616c6c6f776564000000000000600082015250565b7f4f776e61626c653a2063616c6c6572206973206e6f7420746865206f776e6572600082015250565b7f4c6f7474657279206973206f7665720000000000000000000000000000000000600082015250565b7f4c6f7474657279206973206e6f74206f70656e00000000000000000000000000600082015250565b7f6d696e5072696365206d757374206265203c206d617850726963650000000000600082015250565b7f4d757374206265203e2030000000000000000000000000000000000000000000600082015250565b7f4c6f7474657279206c656e677468206f757473696465206f662072616e676500600082015250565b7f4c6f7474657279206e6f74206f70656e00000000000000000000000000000000600082015250565b7f4e6f74206f776e6572206f7220696e6a6563746f720000000000000000000000600082015250565b7f4f757473696465206f66206c696d697473000000000000000000000000000000600082015250565b7f4c6f7474657279206e6f7420696e20636c61696d61626c650000000000000000600082015250565b7f446973636f756e742064697669736f7220746f6f206c6f770000000000000000600082015250565b7f416464726573733a2063616c6c20746f206e6f6e2d636f6e7472616374000000600082015250565b7f427261636b6574206d7573742062652068696768657200000000000000000000600082015250565b7f4e756d626572206f66207469636b657473206d757374206265203e2030000000600082015250565b7f4e756d62657273206e6f7420647261776e000000000000000000000000000000600082015250565b7f5361666545524332303a204552433230206f7065726174696f6e20646964206e60008201527f6f74207375636365656400000000000000000000000000000000000000000000602082015250565b7f43616e6e6f742062652043414b4520746f6b656e000000000000000000000000600082015250565b7f4c6f7474657279206e6f74206f76657200000000000000000000000000000000600082015250565b7f5265656e7472616e637947756172643a207265656e7472616e742063616c6c00600082015250565b7f4c6f7474657279206e6f7420636c6f7365000000000000000000000000000000600082015250565b7f546f6f206d616e79207469636b65747300000000000000000000000000000000600082015250565b7f4e6f74206f70657261746f720000000000000000000000000000000000000000600082015250565b7f5469636b6574496420746f6f206c6f7700000000000000000000000000000000600082015250565b7f4d757374206265203e3d204d494e5f444953434f554e545f44495649534f5200600082015250565b600481106170be576170bd61695d565b5b50565b6170ca81616744565b81146170d557600080fd5b50565b6170e181616756565b81146170ec57600080fd5b50565b6170f881616795565b811461710357600080fd5b50565b61710f8161679f565b811461711a57600080fd5b5056fea26469706673582212209afccb8d40f960a667a3d41a5736bc9f2c4f4d2f785d9a2f85108bfe1a90410f64736f6c63430008040033",
  "linkReferences": {},
  "deployedLinkReferences": {}
}