{
  "_format": "hh-sol-artifact-1",
  "contractName": "PancakeProfile",
  "sourceName": "contracts/ClaimBackCake.sol",
  "abi": [
    {
      "inputs": [
        {
          "internalType": "contract IBEP20",
          "name": "_cakeToken",
          "type": "address"
        },
        {
          "internalType": "uint256",
          "name": "_numberCakeToReactivate",
          "type": "uint256"
        },
        {
          "internalType": "uint256",
          "name": "_numberCakeToRegister",
          "type": "uint256"
        },
        {
          "internalType": "uint256",
          "name": "_numberCakeToUpdate",
          "type": "uint256"
        }
      ],
      "stateMutability": "nonpayable",
      "type": "constructor"
    },
    {
      "anonymous": false,
      "inputs": [
        {
          "indexed": true,
          "internalType": "bytes32",
          "name": "role",
          "type": "bytes32"
        },
        {
          "indexed": true,
          "internalType": "bytes32",
          "name": "previousAdminRole",
          "type": "bytes32"
        },
        {
          "indexed": true,
          "internalType": "bytes32",
          "name": "newAdminRole",
          "type": "bytes32"
        }
      ],
      "name": "RoleAdminChanged",
      "type": "event"
    },
    {
      "anonymous": false,
      "inputs": [
        {
          "indexed": true,
          "internalType": "bytes32",
          "name": "role",
          "type": "bytes32"
        },
        {
          "indexed": true,
          "internalType": "address",
          "name": "account",
          "type": "address"
        },
        {
          "indexed": true,
          "internalType": "address",
          "name": "sender",
          "type": "address"
        }
      ],
      "name": "RoleGranted",
      "type": "event"
    },
    {
      "anonymous": false,
      "inputs": [
        {
          "indexed": true,
          "internalType": "bytes32",
          "name": "role",
          "type": "bytes32"
        },
        {
          "indexed": true,
          "internalType": "address",
          "name": "account",
          "type": "address"
        },
        {
          "indexed": true,
          "internalType": "address",
          "name": "sender",
          "type": "address"
        }
      ],
      "name": "RoleRevoked",
      "type": "event"
    },
    {
      "anonymous": false,
      "inputs": [
        {
          "indexed": false,
          "internalType": "uint256",
          "name": "teamId",
          "type": "uint256"
        },
        {
          "indexed": false,
          "internalType": "string",
          "name": "teamName",
          "type": "string"
        }
      ],
      "name": "TeamAdd",
      "type": "event"
    },
    {
      "anonymous": false,
      "inputs": [
        {
          "indexed": true,
          "internalType": "uint256",
          "name": "teamId",
          "type": "uint256"
        },
        {
          "indexed": false,
          "internalType": "uint256",
          "name": "numberPoints",
          "type": "uint256"
        },
        {
          "indexed": true,
          "internalType": "uint256",
          "name": "campaignId",
          "type": "uint256"
        }
      ],
      "name": "TeamPointIncrease",
      "type": "event"
    },
    {
      "anonymous": false,
      "inputs": [
        {
          "indexed": true,
          "internalType": "address",
          "name": "userAddress",
          "type": "address"
        },
        {
          "indexed": false,
          "internalType": "uint256",
          "name": "oldTeamId",
          "type": "uint256"
        },
        {
          "indexed": false,
          "internalType": "uint256",
          "name": "newTeamId",
          "type": "uint256"
        }
      ],
      "name": "UserChangeTeam",
      "type": "event"
    },
    {
      "anonymous": false,
      "inputs": [
        {
          "indexed": true,
          "internalType": "address",
          "name": "userAddress",
          "type": "address"
        },
        {
          "indexed": false,
          "internalType": "uint256",
          "name": "teamId",
          "type": "uint256"
        },
        {
          "indexed": false,
          "internalType": "address",
          "name": "nftAddress",
          "type": "address"
        },
        {
          "indexed": false,
          "internalType": "uint256",
          "name": "tokenId",
          "type": "uint256"
        }
      ],
      "name": "UserNew",
      "type": "event"
    },
    {
      "anonymous": false,
      "inputs": [
        {
          "indexed": true,
          "internalType": "address",
          "name": "userAddress",
          "type": "address"
        },
        {
          "indexed": false,
          "internalType": "uint256",
          "name": "teamId",
          "type": "uint256"
        }
      ],
      "name": "UserPause",
      "type": "event"
    },
    {
      "anonymous": false,
      "inputs": [
        {
          "indexed": true,
          "internalType": "address",
          "name": "userAddress",
          "type": "address"
        },
        {
          "indexed": false,
          "internalType": "uint256",
          "name": "numberPoints",
          "type": "uint256"
        },
        {
          "indexed": true,
          "internalType": "uint256",
          "name": "campaignId",
          "type": "uint256"
        }
      ],
      "name": "UserPointIncrease",
      "type": "event"
    },
    {
      "anonymous": false,
      "inputs": [
        {
          "indexed": false,
          "internalType": "address[]",
          "name": "userAddresses",
          "type": "address[]"
        },
        {
          "indexed": false,
          "internalType": "uint256",
          "name": "numberPoints",
          "type": "uint256"
        },
        {
          "indexed": true,
          "internalType": "uint256",
          "name": "campaignId",
          "type": "uint256"
        }
      ],
      "name": "UserPointIncreaseMultiple",
      "type": "event"
    },
    {
      "anonymous": false,
      "inputs": [
        {
          "indexed": true,
          "internalType": "address",
          "name": "userAddress",
          "type": "address"
        },
        {
          "indexed": false,
          "internalType": "uint256",
          "name": "teamId",
          "type": "uint256"
        },
        {
          "indexed": false,
          "internalType": "address",
          "name": "nftAddress",
          "type": "address"
        },
        {
          "indexed": false,
          "internalType": "uint256",
          "name": "tokenId",
          "type": "uint256"
        }
      ],
      "name": "UserReactivate",
      "type": "event"
    },
    {
      "anonymous": false,
      "inputs": [
        {
          "indexed": true,
          "internalType": "address",
          "name": "userAddress",
          "type": "address"
        },
        {
          "indexed": false,
          "internalType": "address",
          "name": "nftAddress",
          "type": "address"
        },
        {
          "indexed": false,
          "internalType": "uint256",
          "name": "tokenId",
          "type": "uint256"
        }
      ],
      "name": "UserUpdate",
      "type": "event"
    },
    {
      "inputs": [],
      "name": "DEFAULT_ADMIN_ROLE",
      "outputs": [
        {
          "internalType": "bytes32",
          "name": "",
          "type": "bytes32"
        }
      ],
      "stateMutability": "view",
      "type": "function"
    },
    {
      "inputs": [],
      "name": "NFT_ROLE",
      "outputs": [
        {
          "internalType": "bytes32",
          "name": "",
          "type": "bytes32"
        }
      ],
      "stateMutability": "view",
      "type": "function"
    },
    {
      "inputs": [],
      "name": "POINT_ROLE",
      "outputs": [
        {
          "internalType": "bytes32",
          "name": "",
          "type": "bytes32"
        }
      ],
      "stateMutability": "view",
      "type": "function"
    },
    {
      "inputs": [],
      "name": "SPECIAL_ROLE",
      "outputs": [
        {
          "internalType": "bytes32",
          "name": "",
          "type": "bytes32"
        }
      ],
      "stateMutability": "view",
      "type": "function"
    },
    {
      "inputs": [
        {
          "internalType": "address",
          "name": "_nftAddress",
          "type": "address"
        }
      ],
      "name": "addNftAddress",
      "outputs": [],
      "stateMutability": "nonpayable",
      "type": "function"
    },
    {
      "inputs": [
        {
          "internalType": "string",
          "name": "_teamName",
          "type": "string"
        },
        {
          "internalType": "string",
          "name": "_teamDescription",
          "type": "string"
        }
      ],
      "name": "addTeam",
      "outputs": [],
      "stateMutability": "nonpayable",
      "type": "function"
    },
    {
      "inputs": [],
      "name": "cakeToken",
      "outputs": [
        {
          "internalType": "contract IBEP20",
          "name": "",
          "type": "address"
        }
      ],
      "stateMutability": "view",
      "type": "function"
    },
    {
      "inputs": [
        {
          "internalType": "address",
          "name": "_userAddress",
          "type": "address"
        },
        {
          "internalType": "uint256",
          "name": "_newTeamId",
          "type": "uint256"
        }
      ],
      "name": "changeTeam",
      "outputs": [],
      "stateMutability": "nonpayable",
      "type": "function"
    },
    {
      "inputs": [
        {
          "internalType": "uint256",
          "name": "_amount",
          "type": "uint256"
        }
      ],
      "name": "claimFee",
      "outputs": [],
      "stateMutability": "nonpayable",
      "type": "function"
    },
    {
      "inputs": [
        {
          "internalType": "uint256",
          "name": "_teamId",
          "type": "uint256"
        },
        {
          "internalType": "address",
          "name": "_nftAddress",
          "type": "address"
        },
        {
          "internalType": "uint256",
          "name": "_tokenId",
          "type": "uint256"
        }
      ],
      "name": "createProfile",
      "outputs": [],
      "stateMutability": "nonpayable",
      "type": "function"
    },
    {
      "inputs": [
        {
          "internalType": "bytes32",
          "name": "role",
          "type": "bytes32"
        }
      ],
      "name": "getRoleAdmin",
      "outputs": [
        {
          "internalType": "bytes32",
          "name": "",
          "type": "bytes32"
        }
      ],
      "stateMutability": "view",
      "type": "function"
    },
    {
      "inputs": [
        {
          "internalType": "bytes32",
          "name": "role",
          "type": "bytes32"
        },
        {
          "internalType": "uint256",
          "name": "index",
          "type": "uint256"
        }
      ],
      "name": "getRoleMember",
      "outputs": [
        {
          "internalType": "address",
          "name": "",
          "type": "address"
        }
      ],
      "stateMutability": "view",
      "type": "function"
    },
    {
      "inputs": [
        {
          "internalType": "bytes32",
          "name": "role",
          "type": "bytes32"
        }
      ],
      "name": "getRoleMemberCount",
      "outputs": [
        {
          "internalType": "uint256",
          "name": "",
          "type": "uint256"
        }
      ],
      "stateMutability": "view",
      "type": "function"
    },
    {
      "inputs": [
        {
          "internalType": "uint256",
          "name": "_teamId",
          "type": "uint256"
        }
      ],
      "name": "getTeamProfile",
      "outputs": [
        {
          "internalType": "string",
          "name": "",
          "type": "string"
        },
        {
          "internalType": "string",
          "name": "",
          "type": "string"
        },
        {
          "internalType": "uint256",
          "name": "",
          "type": "uint256"
        },
        {
          "internalType": "uint256",
          "name": "",
          "type": "uint256"
        },
        {
          "internalType": "bool",
          "name": "",
          "type": "bool"
        }
      ],
      "stateMutability": "view",
      "type": "function"
    },
    {
      "inputs": [
        {
          "internalType": "address",
          "name": "_userAddress",
          "type": "address"
        }
      ],
      "name": "getUserProfile",
      "outputs": [
        {
          "internalType": "uint256",
          "name": "",
          "type": "uint256"
        },
        {
          "internalType": "uint256",
          "name": "",
          "type": "uint256"
        },
        {
          "internalType": "uint256",
          "name": "",
          "type": "uint256"
        },
        {
          "internalType": "address",
          "name": "",
          "type": "address"
        },
        {
          "internalType": "uint256",
          "name": "",
          "type": "uint256"
        },
        {
          "internalType": "bool",
          "name": "",
          "type": "bool"
        }
      ],
      "stateMutability": "view",
      "type": "function"
    },
    {
      "inputs": [
        {
          "internalType": "address",
          "name": "_userAddress",
          "type": "address"
        }
      ],
      "name": "getUserStatus",
      "outputs": [
        {
          "internalType": "bool",
          "name": "",
          "type": "bool"
        }
      ],
      "stateMutability": "view",
      "type": "function"
    },
    {
      "inputs": [
        {
          "internalType": "bytes32",
          "name": "role",
          "type": "bytes32"
        },
        {
          "internalType": "address",
          "name": "account",
          "type": "address"
        }
      ],
      "name": "grantRole",
      "outputs": [],
      "stateMutability": "nonpayable",
      "type": "function"
    },
    {
      "inputs": [
        {
          "internalType": "address",
          "name": "",
          "type": "address"
        }
      ],
      "name": "hasRegistered",
      "outputs": [
        {
          "internalType": "bool",
          "name": "",
          "type": "bool"
        }
      ],
      "stateMutability": "view",
      "type": "function"
    },
    {
      "inputs": [
        {
          "internalType": "bytes32",
          "name": "role",
          "type": "bytes32"
        },
        {
          "internalType": "address",
          "name": "account",
          "type": "address"
        }
      ],
      "name": "hasRole",
      "outputs": [
        {
          "internalType": "bool",
          "name": "",
          "type": "bool"
        }
      ],
      "stateMutability": "view",
      "type": "function"
    },
    {
      "inputs": [
        {
          "internalType": "uint256",
          "name": "_teamId",
          "type": "uint256"
        },
        {
          "internalType": "uint256",
          "name": "_numberPoints",
          "type": "uint256"
        },
        {
          "internalType": "uint256",
          "name": "_campaignId",
          "type": "uint256"
        }
      ],
      "name": "increaseTeamPoints",
      "outputs": [],
      "stateMutability": "nonpayable",
      "type": "function"
    },
    {
      "inputs": [
        {
          "internalType": "address",
          "name": "_userAddress",
          "type": "address"
        },
        {
          "internalType": "uint256",
          "name": "_numberPoints",
          "type": "uint256"
        },
        {
          "internalType": "uint256",
          "name": "_campaignId",
          "type": "uint256"
        }
      ],
      "name": "increaseUserPoints",
      "outputs": [],
      "stateMutability": "nonpayable",
      "type": "function"
    },
    {
      "inputs": [
        {
          "internalType": "address[]",
          "name": "_userAddresses",
          "type": "address[]"
        },
        {
          "internalType": "uint256",
          "name": "_numberPoints",
          "type": "uint256"
        },
        {
          "internalType": "uint256",
          "name": "_campaignId",
          "type": "uint256"
        }
      ],
      "name": "increaseUserPointsMultiple",
      "outputs": [],
      "stateMutability": "nonpayable",
      "type": "function"
    },
    {
      "inputs": [
        {
          "internalType": "uint256",
          "name": "_teamId",
          "type": "uint256"
        }
      ],
      "name": "makeTeamJoinable",
      "outputs": [],
      "stateMutability": "nonpayable",
      "type": "function"
    },
    {
      "inputs": [
        {
          "internalType": "uint256",
          "name": "_teamId",
          "type": "uint256"
        }
      ],
      "name": "makeTeamNotJoinable",
      "outputs": [],
      "stateMutability": "nonpayable",
      "type": "function"
    },
    {
      "inputs": [],
      "name": "numberActiveProfiles",
      "outputs": [
        {
          "internalType": "uint256",
          "name": "",
          "type": "uint256"
        }
      ],
      "stateMutability": "view",
      "type": "function"
    },
    {
      "inputs": [],
      "name": "numberCakeToReactivate",
      "outputs": [
        {
          "internalType": "uint256",
          "name": "",
          "type": "uint256"
        }
      ],
      "stateMutability": "view",
      "type": "function"
    },
    {
      "inputs": [],
      "name": "numberCakeToRegister",
      "outputs": [
        {
          "internalType": "uint256",
          "name": "",
          "type": "uint256"
        }
      ],
      "stateMutability": "view",
      "type": "function"
    },
    {
      "inputs": [],
      "name": "numberCakeToUpdate",
      "outputs": [
        {
          "internalType": "uint256",
          "name": "",
          "type": "uint256"
        }
      ],
      "stateMutability": "view",
      "type": "function"
    },
    {
      "inputs": [],
      "name": "numberTeams",
      "outputs": [
        {
          "internalType": "uint256",
          "name": "",
          "type": "uint256"
        }
      ],
      "stateMutability": "view",
      "type": "function"
    },
    {
      "inputs": [
        {
          "internalType": "address",
          "name": "",
          "type": "address"
        },
        {
          "internalType": "address",
          "name": "",
          "type": "address"
        },
        {
          "internalType": "uint256",
          "name": "",
          "type": "uint256"
        },
        {
          "internalType": "bytes",
          "name": "",
          "type": "bytes"
        }
      ],
      "name": "onERC721Received",
      "outputs": [
        {
          "internalType": "bytes4",
          "name": "",
          "type": "bytes4"
        }
      ],
      "stateMutability": "nonpayable",
      "type": "function"
    },
    {
      "inputs": [],
      "name": "pauseProfile",
      "outputs": [],
      "stateMutability": "nonpayable",
      "type": "function"
    },
    {
      "inputs": [
        {
          "internalType": "address",
          "name": "_nftAddress",
          "type": "address"
        },
        {
          "internalType": "uint256",
          "name": "_tokenId",
          "type": "uint256"
        }
      ],
      "name": "reactivateProfile",
      "outputs": [],
      "stateMutability": "nonpayable",
      "type": "function"
    },
    {
      "inputs": [
        {
          "internalType": "uint256",
          "name": "_teamId",
          "type": "uint256"
        },
        {
          "internalType": "uint256",
          "name": "_numberPoints",
          "type": "uint256"
        }
      ],
      "name": "removeTeamPoints",
      "outputs": [],
      "stateMutability": "nonpayable",
      "type": "function"
    },
    {
      "inputs": [
        {
          "internalType": "address",
          "name": "_userAddress",
          "type": "address"
        },
        {
          "internalType": "uint256",
          "name": "_numberPoints",
          "type": "uint256"
        }
      ],
      "name": "removeUserPoints",
      "outputs": [],
      "stateMutability": "nonpayable",
      "type": "function"
    },
    {
      "inputs": [
        {
          "internalType": "address[]",
          "name": "_userAddresses",
          "type": "address[]"
        },
        {
          "internalType": "uint256",
          "name": "_numberPoints",
          "type": "uint256"
        }
      ],
      "name": "removeUserPointsMultiple",
      "outputs": [],
      "stateMutability": "nonpayable",
      "type": "function"
    },
    {
      "inputs": [
        {
          "internalType": "uint256",
          "name": "_teamId",
          "type": "uint256"
        },
        {
          "internalType": "string",
          "name": "_teamName",
          "type": "string"
        },
        {
          "internalType": "string",
          "name": "_teamDescription",
          "type": "string"
        }
      ],
      "name": "renameTeam",
      "outputs": [],
      "stateMutability": "nonpayable",
      "type": "function"
    },
    {
      "inputs": [
        {
          "internalType": "bytes32",
          "name": "role",
          "type": "bytes32"
        },
        {
          "internalType": "address",
          "name": "account",
          "type": "address"
        }
      ],
      "name": "renounceRole",
      "outputs": [],
      "stateMutability": "nonpayable",
      "type": "function"
    },
    {
      "inputs": [
        {
          "internalType": "bytes32",
          "name": "role",
          "type": "bytes32"
        },
        {
          "internalType": "address",
          "name": "account",
          "type": "address"
        }
      ],
      "name": "revokeRole",
      "outputs": [],
      "stateMutability": "nonpayable",
      "type": "function"
    },
    {
      "inputs": [
        {
          "internalType": "uint256",
          "name": "_newNumberCakeToReactivate",
          "type": "uint256"
        },
        {
          "internalType": "uint256",
          "name": "_newNumberCakeToRegister",
          "type": "uint256"
        },
        {
          "internalType": "uint256",
          "name": "_newNumberCakeToUpdate",
          "type": "uint256"
        }
      ],
      "name": "updateNumberCake",
      "outputs": [],
      "stateMutability": "nonpayable",
      "type": "function"
    },
    {
      "inputs": [
        {
          "internalType": "address",
          "name": "_nftAddress",
          "type": "address"
        },
        {
          "internalType": "uint256",
          "name": "_tokenId",
          "type": "uint256"
        }
      ],
      "name": "updateProfile",
      "outputs": [],
      "stateMutability": "nonpayable",
      "type": "function"
    }
  ],
  "bytecode": "0x60806040523480156200001157600080fd5b5060405162005c2638038062005c26833981810160405260808110156200003757600080fd5b810190808051906020019092919080519060200190929190805190602001909291908051906020019092919050505083600160006101000a81548173ffffffffffffffffffffffffffffffffffffffff021916908373ffffffffffffffffffffffffffffffffffffffff160217905550826003819055508160048190555080600581905550620000e06000801b620000d4620000ea60201b60201c565b620000f260201b60201c565b5050505062000280565b600033905090565b6200010482826200010860201b60201c565b5050565b6200013681600080858152602001908152602001600020600001620001ab60201b62004c9f1790919060201c565b15620001a7576200014c620000ea60201b60201c565b73ffffffffffffffffffffffffffffffffffffffff168173ffffffffffffffffffffffffffffffffffffffff16837f2f8788117e7eff1d82e926ec794901d17c78024a50270940304540a733656f0d60405160405180910390a45b5050565b6000620001db836000018373ffffffffffffffffffffffffffffffffffffffff1660001b620001e360201b60201c565b905092915050565b6000620001f783836200025d60201b60201c565b6200025257826000018290806001815401808255809150506001900390600052602060002001600090919091909150558260000180549050836001016000848152602001908152602001600020819055506001905062000257565b600090505b92915050565b600080836001016000848152602001908152602001600020541415905092915050565b61599680620002906000396000f3fe608060405234801561001057600080fd5b50600436106102485760003560e01c8063a217fddf1161013b578063d547741f116100b8578063ea0d5dcd1161007c578063ea0d5dcd14610e72578063ebc4ffc714610ecc578063f667526a14610efa578063f684f33c14610f28578063fd825f5814610f4657610248565b8063d547741f14610cdd578063da83fe4a14610d2b578063da95006d14610d79578063e2fa2ff314610d97578063e5020a6214610e2457610248565b8063bf051c13116100ff578063bf051c1314610c1d578063c1694a2f14610c3b578063c9bed94814610c45578063ca15c87314610c63578063d1d0954c14610ca557610248565b8063a217fddf146109e6578063a40601ee14610a04578063a56bd1de14610a52578063aee2f47f14610ad5578063be4f9bd614610bff57610248565b806336568abe116101c95780638904bf2f1161018d5780638904bf2f146107ff5780639010d07c1461083357806391d1485414610895578063987ee156146108f9578063a0d035261461098c57610248565b806336568abe146106595780633dd452d6146106a757806349b2cff5146106c55780635da3c240146106e35780635db345661461072757610248565b80631e47a476116102105780631e47a47614610517578063218188d714610559578063248a9ca3146105875780632daa72d4146105c95780632f2ff15d1461060b57610248565b80630a82697b1461024d5780630d4fb8031461029b578063150b7a02146103695780631bdc17f6146104a15780631d0c02b9146104f9575b600080fd5b6102996004803603604081101561026357600080fd5b81019080803573ffffffffffffffffffffffffffffffffffffffff16906020019092919080359060200190929190505050610f9e565b005b610367600480360360408110156102b157600080fd5b81019080803590602001906401000000008111156102ce57600080fd5b8201836020820111156102e057600080fd5b8035906020019184600183028401116401000000008311171561030257600080fd5b90919293919293908035906020019064010000000081111561032357600080fd5b82018360208201111561033557600080fd5b8035906020019184600183028401116401000000008311171561035757600080fd5b90919293919293905050506116c7565b005b61046c6004803603608081101561037f57600080fd5b81019080803573ffffffffffffffffffffffffffffffffffffffff169060200190929190803573ffffffffffffffffffffffffffffffffffffffff16906020019092919080359060200190929190803590602001906401000000008111156103e657600080fd5b8201836020820111156103f857600080fd5b8035906020019184600183028401116401000000008311171561041a57600080fd5b91908080601f016020809104026020016040519081016040528093929190818152602001838380828437600081840152601f19601f820116905080830192505050505050509192919290505050611a4e565b60405180827bffffffffffffffffffffffffffffffffffffffffffffffffffffffff1916815260200191505060405180910390f35b6104f7600480360360608110156104b757600080fd5b81019080803573ffffffffffffffffffffffffffffffffffffffff1690602001909291908035906020019092919080359060200190929190505050611a62565b005b610501611bf4565b6040518082815260200191505060405180910390f35b6105576004803603606081101561052d57600080fd5b81019080803590602001909291908035906020019092919080359060200190929190505050611bfa565b005b6105856004803603602081101561056f57600080fd5b8101908080359060200190929190505050611d1e565b005b6105b36004803603602081101561059d57600080fd5b8101908080359060200190929190505050611e5a565b6040518082815260200191505060405180910390f35b610609600480360360608110156105df57600080fd5b81019080803590602001909291908035906020019092919080359060200190929190505050611e79565b005b6106576004803603604081101561062157600080fd5b8101908080359060200190929190803573ffffffffffffffffffffffffffffffffffffffff169060200190929190505050611f19565b005b6106a56004803603604081101561066f57600080fd5b8101908080359060200190929190803573ffffffffffffffffffffffffffffffffffffffff169060200190929190505050611fa2565b005b6106af61203b565b6040518082815260200191505060405180910390f35b6106cd612041565b6040518082815260200191505060405180910390f35b610725600480360360208110156106f957600080fd5b81019080803573ffffffffffffffffffffffffffffffffffffffff169060200190929190505050612047565b005b6107fd6004803603606081101561073d57600080fd5b81019080803590602001909291908035906020019064010000000081111561076457600080fd5b82018360208201111561077657600080fd5b8035906020019184600183028401116401000000008311171561079857600080fd5b9091929391929390803590602001906401000000008111156107b957600080fd5b8201836020820111156107cb57600080fd5b803590602001918460018302840111640100000000831117156107ed57600080fd5b90919293919293905050506121ff565b005b610807612494565b604051808273ffffffffffffffffffffffffffffffffffffffff16815260200191505060405180910390f35b6108696004803603604081101561084957600080fd5b8101908080359060200190929190803590602001909291905050506124ba565b604051808273ffffffffffffffffffffffffffffffffffffffff16815260200191505060405180910390f35b6108e1600480360360408110156108ab57600080fd5b8101908080359060200190929190803573ffffffffffffffffffffffffffffffffffffffff1690602001909291905050506124eb565b60405180821515815260200191505060405180910390f35b61093b6004803603602081101561090f57600080fd5b81019080803573ffffffffffffffffffffffffffffffffffffffff16906020019092919050505061251c565b604051808781526020018681526020018581526020018473ffffffffffffffffffffffffffffffffffffffff1681526020018381526020018215158152602001965050505050505060405180910390f35b6109ce600480360360208110156109a257600080fd5b81019080803573ffffffffffffffffffffffffffffffffffffffff1690602001909291905050506127b8565b60405180821515815260200191505060405180910390f35b6109ee6127d8565b6040518082815260200191505060405180910390f35b610a5060048036036040811015610a1a57600080fd5b81019080803573ffffffffffffffffffffffffffffffffffffffff169060200190929190803590602001909291905050506127df565b005b610ad360048036036040811015610a6857600080fd5b8101908080359060200190640100000000811115610a8557600080fd5b820183602082011115610a9757600080fd5b80359060200191846020830284011164010000000083111715610ab957600080fd5b909192939192939080359060200190929190505050612eb0565b005b610b0160048036036020811015610aeb57600080fd5b81019080803590602001909291905050506130d9565b6040518080602001806020018681526020018581526020018415158152602001838103835288818151815260200191508051906020019080838360005b83811015610b59578082015181840152602081019050610b3e565b50505050905090810190601f168015610b865780820380516001836020036101000a031916815260200191505b50838103825287818151815260200191508051906020019080838360005b83811015610bbf578082015181840152602081019050610ba4565b50505050905090810190601f168015610bec5780820380516001836020036101000a031916815260200191505b5097505050505050505060405180910390f35b610c0761332e565b6040518082815260200191505060405180910390f35b610c25613334565b6040518082815260200191505060405180910390f35b610c43613358565b005b610c4d613893565b6040518082815260200191505060405180910390f35b610c8f60048036036020811015610c7957600080fd5b81019080803590602001909291905050506138b7565b6040518082815260200191505060405180910390f35b610cdb60048036036040811015610cbb57600080fd5b8101908080359060200190929190803590602001909291905050506138dd565b005b610d2960048036036040811015610cf357600080fd5b8101908080359060200190929190803573ffffffffffffffffffffffffffffffffffffffff1690602001909291905050506139c7565b005b610d7760048036036040811015610d4157600080fd5b81019080803573ffffffffffffffffffffffffffffffffffffffff16906020019092919080359060200190929190505050613a50565b005b610d81613b92565b6040518082815260200191505060405180910390f35b610e2260048036036060811015610dad57600080fd5b8101908080359060200190640100000000811115610dca57600080fd5b820183602082011115610ddc57600080fd5b80359060200191846020830284011164010000000083111715610dfe57600080fd5b90919293919293908035906020019092919080359060200190929190505050613b98565b005b610e7060048036036040811015610e3a57600080fd5b81019080803573ffffffffffffffffffffffffffffffffffffffff16906020019092919080359060200190929190505050613e31565b005b610eb460048036036020811015610e8857600080fd5b81019080803573ffffffffffffffffffffffffffffffffffffffff1690602001909291905050506142d6565b60405180821515815260200191505060405180910390f35b610ef860048036036020811015610ee257600080fd5b810190808035906020019092919050505061432f565b005b610f2660048036036020811015610f1057600080fd5b810190808035906020019092919050505061446b565b005b610f30614548565b6040518082815260200191505060405180910390f35b610f9c60048036036060811015610f5c57600080fd5b8101908080359060200190929190803573ffffffffffffffffffffffffffffffffffffffff1690602001909291908035906020019092919050505061456c565b005b60076000610faa614ccf565b73ffffffffffffffffffffffffffffffffffffffff1673ffffffffffffffffffffffffffffffffffffffff16815260200190815260200160002060009054906101000a900460ff16611064576040517f08c379a00000000000000000000000000000000000000000000000000000000081526004018080602001828103825260128152602001807f486173206e6f742072656769737465726564000000000000000000000000000081525060200191505060405180910390fd5b61108e7f8736816fdbcc15d6cc3f6dcf60e42b0ef33eb02281d312c807a38b4ad09190c0836124eb565b611100576040517f08c379a00000000000000000000000000000000000000000000000000000000081526004018080602001828103825260138152602001807f4e4654206164647265737320696e76616c69640000000000000000000000000081525060200191505060405180910390fd5b6009600061110c614ccf565b73ffffffffffffffffffffffffffffffffffffffff1673ffffffffffffffffffffffffffffffffffffffff16815260200190815260200160002060050160009054906101000a900460ff166111c9576040517f08c379a000000000000000000000000000000000000000000000000000000000815260040180806020018281038252600f8152602001807f55736572206e6f7420616374697665000000000000000000000000000000000081525060200191505060405180910390fd5b6000600960006111d7614ccf565b73ffffffffffffffffffffffffffffffffffffffff1673ffffffffffffffffffffffffffffffffffffffff16815260200190815260200160002060030160009054906101000a900473ffffffffffffffffffffffffffffffffffffffff169050600060096000611245614ccf565b73ffffffffffffffffffffffffffffffffffffffff1673ffffffffffffffffffffffffffffffffffffffff16815260200190815260200160002060040154905060008490508073ffffffffffffffffffffffffffffffffffffffff16636352211e856040518263ffffffff1660e01b81526004018082815260200191505060206040518083038186803b1580156112db57600080fd5b505afa1580156112ef573d6000803e3d6000fd5b505050506040513d602081101561130557600080fd5b810190808051906020019092919050505073ffffffffffffffffffffffffffffffffffffffff16611334614ccf565b73ffffffffffffffffffffffffffffffffffffffff16146113bd576040517f08c379a00000000000000000000000000000000000000000000000000000000081526004018080602001828103825260198152602001807f4f6e6c79204e4654206f776e65722063616e207570646174650000000000000081525060200191505060405180910390fd5b8073ffffffffffffffffffffffffffffffffffffffff166342842e0e6113e1614ccf565b30876040518463ffffffff1660e01b8152600401808473ffffffffffffffffffffffffffffffffffffffff1681526020018373ffffffffffffffffffffffffffffffffffffffff1681526020018281526020019350505050600060405180830381600087803b15801561145357600080fd5b505af1158015611467573d6000803e3d6000fd5b505050506114c3611476614ccf565b30600554600160009054906101000a900473ffffffffffffffffffffffffffffffffffffffff1673ffffffffffffffffffffffffffffffffffffffff16614cd7909392919063ffffffff16565b60008390508073ffffffffffffffffffffffffffffffffffffffff166342842e0e306114ed614ccf565b866040518463ffffffff1660e01b8152600401808473ffffffffffffffffffffffffffffffffffffffff1681526020018373ffffffffffffffffffffffffffffffffffffffff1681526020018281526020019350505050600060405180830381600087803b15801561155e57600080fd5b505af1158015611572573d6000803e3d6000fd5b505050508560096000611583614ccf565b73ffffffffffffffffffffffffffffffffffffffff1673ffffffffffffffffffffffffffffffffffffffff16815260200190815260200160002060030160006101000a81548173ffffffffffffffffffffffffffffffffffffffff021916908373ffffffffffffffffffffffffffffffffffffffff160217905550846009600061160b614ccf565b73ffffffffffffffffffffffffffffffffffffffff1673ffffffffffffffffffffffffffffffffffffffff16815260200190815260200160002060040181905550611654614ccf565b73ffffffffffffffffffffffffffffffffffffffff167fe8e88d4216f3bbc2d1a4dd55aa66fd3e0065ef03970fa056a19d018ca19d58058787604051808373ffffffffffffffffffffffffffffffffffffffff1681526020018281526020019250505060405180910390a2505050505050565b6116db6000801b6116d6614ccf565b6124eb565b61174d576040517f08c379a00000000000000000000000000000000000000000000000000000000081526004018080602001828103825260128152602001807f4e6f7420746865206d61696e2061646d696e000000000000000000000000000081525060200191505060405180910390fd5b606084848080601f016020809104026020016040519081016040528093929190818152602001838380828437600081840152601f19601f820116905080830192505050505050509050601481511061180d576040517f08c379a000000000000000000000000000000000000000000000000000000000815260040180806020018281038252600c8152602001807f4d757374206265203c203230000000000000000000000000000000000000000081525060200191505060405180910390fd5b6003815111611884576040517f08c379a000000000000000000000000000000000000000000000000000000000815260040180806020018281038252600b8152602001807f4d757374206265203e203300000000000000000000000000000000000000000081525060200191505060405180910390fd5b61188e600a614d98565b600061189a600a614dae565b90506040518060a0016040528087878080601f016020809104026020016040519081016040528093929190818152602001838380828437600081840152601f19601f82011690508083019250505050505050815260200185858080601f016020809104026020016040519081016040528093929190818152602001838380828437600081840152601f19601f82011690508083019250505050505050815260200160008152602001600081526020016001151581525060086000838152602001908152602001600020600082015181600001908051906020019061197f929190615743565b50602082015181600101908051906020019061199c929190615743565b50604082015181600201556060820151816003015560808201518160040160006101000a81548160ff021916908315150217905550905050806006819055507f1137f48534f03e02268dec7839069a7484bc6788c43e4ed9dc38dd8a2f269bc781878760405180848152602001806020018281038252848482818152602001925080828437600081840152601f19601f82011690508083019250505094505050505060405180910390a1505050505050565b600063150b7a0260e01b9050949350505050565b611a937f110b44e4bccdedbab0625f137765abddea8ae658791a82fff3fb5e80db2bad48611a8e614ccf565b6124eb565b611b05576040517f08c379a00000000000000000000000000000000000000000000000000000000081526004018080602001828103825260118152602001807f4e6f74206120706f696e742061646d696e00000000000000000000000000000081525060200191505060405180910390fd5b611b5a82600960008673ffffffffffffffffffffffffffffffffffffffff1673ffffffffffffffffffffffffffffffffffffffff16815260200190815260200160002060010154614dbc90919063ffffffff16565b600960008573ffffffffffffffffffffffffffffffffffffffff1673ffffffffffffffffffffffffffffffffffffffff16815260200190815260200160002060010181905550808373ffffffffffffffffffffffffffffffffffffffff167f04bc07bcb78bb21e5665cf01cd24f6a6a06e21fd20d60df8f0fa8d58c66f2934846040518082815260200191505060405180910390a3505050565b60055481565b611c2b7f110b44e4bccdedbab0625f137765abddea8ae658791a82fff3fb5e80db2bad48611c26614ccf565b6124eb565b611c9d576040517f08c379a00000000000000000000000000000000000000000000000000000000081526004018080602001828103825260118152602001807f4e6f74206120706f696e742061646d696e00000000000000000000000000000081525060200191505060405180910390fd5b611cc6826008600086815260200190815260200160002060030154614dbc90919063ffffffff16565b600860008581526020019081526020016000206003018190555080837f2056366a9d1345af9da00985231357931fb77dc7fa7bdf71058e3ca3816f9d38846040518082815260200191505060405180910390a3505050565b611d326000801b611d2d614ccf565b6124eb565b611da4576040517f08c379a00000000000000000000000000000000000000000000000000000000081526004018080602001828103825260128152602001807f4e6f7420746865206d61696e2061646d696e000000000000000000000000000081525060200191505060405180910390fd5b6006548111158015611db65750600081115b611e28576040517f08c379a000000000000000000000000000000000000000000000000000000000815260040180806020018281038252600e8152602001807f7465616d496420696e76616c696400000000000000000000000000000000000081525060200191505060405180910390fd5b60006008600083815260200190815260200160002060040160006101000a81548160ff02191690831515021790555050565b6000806000838152602001908152602001600020600201549050919050565b611e8d6000801b611e88614ccf565b6124eb565b611eff576040517f08c379a00000000000000000000000000000000000000000000000000000000081526004018080602001828103825260128152602001807f4e6f7420746865206d61696e2061646d696e000000000000000000000000000081525060200191505060405180910390fd5b826003819055508160048190555080600581905550505050565b611f3f60008084815260200190815260200160002060020154611f3a614ccf565b6124eb565b611f94576040517f08c379a000000000000000000000000000000000000000000000000000000000815260040180806020018281038252602f815260200180615883602f913960400191505060405180910390fd5b611f9e8282614e44565b5050565b611faa614ccf565b73ffffffffffffffffffffffffffffffffffffffff168173ffffffffffffffffffffffffffffffffffffffff161461202d576040517f08c379a000000000000000000000000000000000000000000000000000000000815260040180806020018281038252602f815260200180615932602f913960400191505060405180910390fd5b6120378282614ed7565b5050565b60065481565b60045481565b61205b6000801b612056614ccf565b6124eb565b6120cd576040517f08c379a00000000000000000000000000000000000000000000000000000000081526004018080602001828103825260128152602001807f4e6f7420746865206d61696e2061646d696e000000000000000000000000000081525060200191505060405180910390fd5b8073ffffffffffffffffffffffffffffffffffffffff166301ffc9a76380ac58cd6040518263ffffffff1660e01b8152600401808260e01b815260200191505060206040518083038186803b15801561212557600080fd5b505afa158015612139573d6000803e3d6000fd5b505050506040513d602081101561214f57600080fd5b81019080805190602001909291905050506121d2576040517f08c379a000000000000000000000000000000000000000000000000000000000815260040180806020018281038252600a8152602001807f4e6f74204552433732310000000000000000000000000000000000000000000081525060200191505060405180910390fd5b6121fc7f8736816fdbcc15d6cc3f6dcf60e42b0ef33eb02281d312c807a38b4ad09190c082611f19565b50565b6122136000801b61220e614ccf565b6124eb565b612285576040517f08c379a00000000000000000000000000000000000000000000000000000000081526004018080602001828103825260128152602001807f4e6f7420746865206d61696e2061646d696e000000000000000000000000000081525060200191505060405180910390fd5b60065485111580156122975750600085115b612309576040517f08c379a000000000000000000000000000000000000000000000000000000000815260040180806020018281038252600e8152602001807f7465616d496420696e76616c696400000000000000000000000000000000000081525060200191505060405180910390fd5b606084848080601f016020809104026020016040519081016040528093929190818152602001838380828437600081840152601f19601f82011690508083019250505050505050905060148151106123c9576040517f08c379a000000000000000000000000000000000000000000000000000000000815260040180806020018281038252600c8152602001807f4d757374206265203c203230000000000000000000000000000000000000000081525060200191505060405180910390fd5b6003815111612440576040517f08c379a000000000000000000000000000000000000000000000000000000000815260040180806020018281038252600b8152602001807f4d757374206265203e203300000000000000000000000000000000000000000081525060200191505060405180910390fd5b84846008600089815260200190815260200160002060000191906124659291906157c3565b50828260086000898152602001908152602001600020600101919061248b9291906157c3565b50505050505050565b600160009054906101000a900473ffffffffffffffffffffffffffffffffffffffff1681565b60006124e382600080868152602001908152602001600020600001614f6a90919063ffffffff16565b905092915050565b600061251482600080868152602001908152602001600020600001614f8490919063ffffffff16565b905092915050565b600080600080600080600760008873ffffffffffffffffffffffffffffffffffffffff1673ffffffffffffffffffffffffffffffffffffffff16815260200190815260200160002060009054906101000a900460ff166125e4576040517f08c379a000000000000000000000000000000000000000000000000000000000815260040180806020018281038252600e8152602001807f4e6f74207265676973746572656400000000000000000000000000000000000081525060200191505060405180910390fd5b600960008873ffffffffffffffffffffffffffffffffffffffff1673ffffffffffffffffffffffffffffffffffffffff16815260200190815260200160002060000154600960008973ffffffffffffffffffffffffffffffffffffffff1673ffffffffffffffffffffffffffffffffffffffff16815260200190815260200160002060010154600960008a73ffffffffffffffffffffffffffffffffffffffff1673ffffffffffffffffffffffffffffffffffffffff16815260200190815260200160002060020154600960008b73ffffffffffffffffffffffffffffffffffffffff1673ffffffffffffffffffffffffffffffffffffffff16815260200190815260200160002060030160009054906101000a900473ffffffffffffffffffffffffffffffffffffffff16600960008c73ffffffffffffffffffffffffffffffffffffffff1673ffffffffffffffffffffffffffffffffffffffff16815260200190815260200160002060040154600960008d73ffffffffffffffffffffffffffffffffffffffff1673ffffffffffffffffffffffffffffffffffffffff16815260200190815260200160002060050160009054906101000a900460ff1695509550955095509550955091939550919395565b60076020528060005260406000206000915054906101000a900460ff1681565b6000801b81565b600760006127eb614ccf565b73ffffffffffffffffffffffffffffffffffffffff1673ffffffffffffffffffffffffffffffffffffffff16815260200190815260200160002060009054906101000a900460ff166128a5576040517f08c379a00000000000000000000000000000000000000000000000000000000081526004018080602001828103825260128152602001807f486173206e6f742072656769737465726564000000000000000000000000000081525060200191505060405180910390fd5b6128cf7f8736816fdbcc15d6cc3f6dcf60e42b0ef33eb02281d312c807a38b4ad09190c0836124eb565b612941576040517f08c379a00000000000000000000000000000000000000000000000000000000081526004018080602001828103825260138152602001807f4e4654206164647265737320696e76616c69640000000000000000000000000081525060200191505060405180910390fd5b6009600061294d614ccf565b73ffffffffffffffffffffffffffffffffffffffff1673ffffffffffffffffffffffffffffffffffffffff16815260200190815260200160002060050160009054906101000a900460ff1615612a0b576040517f08c379a000000000000000000000000000000000000000000000000000000000815260040180806020018281038252600e8152602001807f557365722069732061637469766500000000000000000000000000000000000081525060200191505060405180910390fd5b60008290508073ffffffffffffffffffffffffffffffffffffffff16636352211e836040518263ffffffff1660e01b81526004018082815260200191505060206040518083038186803b158015612a6157600080fd5b505afa158015612a75573d6000803e3d6000fd5b505050506040513d6020811015612a8b57600080fd5b810190808051906020019092919050505073ffffffffffffffffffffffffffffffffffffffff16612aba614ccf565b73ffffffffffffffffffffffffffffffffffffffff1614612b43576040517f08c379a00000000000000000000000000000000000000000000000000000000081526004018080602001828103825260198152602001807f4f6e6c79204e4654206f776e65722063616e207570646174650000000000000081525060200191505060405180910390fd5b612b9b612b4e614ccf565b30600354600160009054906101000a900473ffffffffffffffffffffffffffffffffffffffff1673ffffffffffffffffffffffffffffffffffffffff16614cd7909392919063ffffffff16565b8073ffffffffffffffffffffffffffffffffffffffff166342842e0e612bbf614ccf565b30856040518463ffffffff1660e01b8152600401808473ffffffffffffffffffffffffffffffffffffffff1681526020018373ffffffffffffffffffffffffffffffffffffffff1681526020018281526020019350505050600060405180830381600087803b158015612c3157600080fd5b505af1158015612c45573d6000803e3d6000fd5b50505050600060096000612c57614ccf565b73ffffffffffffffffffffffffffffffffffffffff1673ffffffffffffffffffffffffffffffffffffffff168152602001908152602001600020600201549050612cc160016008600084815260200190815260200160002060020154614dbc90919063ffffffff16565b6008600083815260200190815260200160002060020181905550612cf16001600254614dbc90919063ffffffff16565b600281905550600160096000612d05614ccf565b73ffffffffffffffffffffffffffffffffffffffff1673ffffffffffffffffffffffffffffffffffffffff16815260200190815260200160002060050160006101000a81548160ff0219169083151502179055508360096000612d66614ccf565b73ffffffffffffffffffffffffffffffffffffffff1673ffffffffffffffffffffffffffffffffffffffff16815260200190815260200160002060030160006101000a81548173ffffffffffffffffffffffffffffffffffffffff021916908373ffffffffffffffffffffffffffffffffffffffff1602179055508260096000612dee614ccf565b73ffffffffffffffffffffffffffffffffffffffff1673ffffffffffffffffffffffffffffffffffffffff16815260200190815260200160002060040181905550612e37614ccf565b73ffffffffffffffffffffffffffffffffffffffff167fdb76eea80687b6553e5d689ff9d000c0ce2c10574b39d64cacc2b4f6f54f6838828686604051808481526020018373ffffffffffffffffffffffffffffffffffffffff168152602001828152602001935050505060405180910390a250505050565b612ee17f110b44e4bccdedbab0625f137765abddea8ae658791a82fff3fb5e80db2bad48612edc614ccf565b6124eb565b612f53576040517f08c379a00000000000000000000000000000000000000000000000000000000081526004018080602001828103825260118152602001807f4e6f74206120706f696e742061646d696e00000000000000000000000000000081525060200191505060405180910390fd5b6103e98383905010612fcd576040517f08c379a00000000000000000000000000000000000000000000000000000000081526004018080602001828103825260158152602001807f4c656e677468206d757374206265203c2031303031000000000000000000000081525060200191505060405180910390fd5b60005b838390508110156130d3576130588260096000878786818110612fef57fe5b9050602002013573ffffffffffffffffffffffffffffffffffffffff1673ffffffffffffffffffffffffffffffffffffffff1673ffffffffffffffffffffffffffffffffffffffff16815260200190815260200160002060010154614fb490919063ffffffff16565b6009600086868581811061306857fe5b9050602002013573ffffffffffffffffffffffffffffffffffffffff1673ffffffffffffffffffffffffffffffffffffffff1673ffffffffffffffffffffffffffffffffffffffff168152602001908152602001600020600101819055508080600101915050612fd0565b50505050565b606080600080600060065486111580156130f35750600086115b613165576040517f08c379a000000000000000000000000000000000000000000000000000000000815260040180806020018281038252600e8152602001807f7465616d496420696e76616c696400000000000000000000000000000000000081525060200191505060405180910390fd5b60086000878152602001908152602001600020600001600860008881526020019081526020016000206001016008600089815260200190815260200160002060020154600860008a815260200190815260200160002060030154600860008b815260200190815260200160002060040160009054906101000a900460ff16848054600181600116156101000203166002900480601f0160208091040260200160405190810160405280929190818152602001828054600181600116156101000203166002900480156132785780601f1061324d57610100808354040283529160200191613278565b820191906000526020600020905b81548152906001019060200180831161325b57829003601f168201915b50505050509450838054600181600116156101000203166002900480601f0160208091040260200160405190810160405280929190818152602001828054600181600116156101000203166002900480156133145780601f106132e957610100808354040283529160200191613314565b820191906000526020600020905b8154815290600101906020018083116132f757829003601f168201915b505050505093509450945094509450945091939590929450565b60025481565b7f3f12a51c1a5d4235e47a0365ddc220be1678ccffcdf71bfd6ee9c417f801e00881565b60076000613364614ccf565b73ffffffffffffffffffffffffffffffffffffffff1673ffffffffffffffffffffffffffffffffffffffff16815260200190815260200160002060009054906101000a900460ff1661341e576040517f08c379a00000000000000000000000000000000000000000000000000000000081526004018080602001828103825260128152602001807f486173206e6f742072656769737465726564000000000000000000000000000081525060200191505060405180910390fd5b6009600061342a614ccf565b73ffffffffffffffffffffffffffffffffffffffff1673ffffffffffffffffffffffffffffffffffffffff16815260200190815260200160002060050160009054906101000a900460ff166134e7576040517f08c379a000000000000000000000000000000000000000000000000000000000815260040180806020018281038252600f8152602001807f55736572206e6f7420616374697665000000000000000000000000000000000081525060200191505060405180910390fd5b6000600960006134f5614ccf565b73ffffffffffffffffffffffffffffffffffffffff1673ffffffffffffffffffffffffffffffffffffffff16815260200190815260200160002060050160006101000a81548160ff021916908315150217905550600060096000613557614ccf565b73ffffffffffffffffffffffffffffffffffffffff1673ffffffffffffffffffffffffffffffffffffffff1681526020019081526020016000206002015490506135c160016008600084815260200190815260200160002060020154614fb490919063ffffffff16565b60086000838152602001908152602001600020600201819055506135f16001600254614fb490919063ffffffff16565b600281905550600060096000613605614ccf565b73ffffffffffffffffffffffffffffffffffffffff1673ffffffffffffffffffffffffffffffffffffffff16815260200190815260200160002060030160009054906101000a900473ffffffffffffffffffffffffffffffffffffffff169050600060096000613673614ccf565b73ffffffffffffffffffffffffffffffffffffffff1673ffffffffffffffffffffffffffffffffffffffff1681526020019081526020016000206004015490506000600960006136c1614ccf565b73ffffffffffffffffffffffffffffffffffffffff1673ffffffffffffffffffffffffffffffffffffffff16815260200190815260200160002060030160006101000a81548173ffffffffffffffffffffffffffffffffffffffff021916908373ffffffffffffffffffffffffffffffffffffffff16021790555060006009600061374a614ccf565b73ffffffffffffffffffffffffffffffffffffffff1673ffffffffffffffffffffffffffffffffffffffff168152602001908152602001600020600401819055508173ffffffffffffffffffffffffffffffffffffffff166342842e0e306137b0614ccf565b846040518463ffffffff1660e01b8152600401808473ffffffffffffffffffffffffffffffffffffffff1681526020018373ffffffffffffffffffffffffffffffffffffffff1681526020018281526020019350505050600060405180830381600087803b15801561382157600080fd5b505af1158015613835573d6000803e3d6000fd5b50505050613841614ccf565b73ffffffffffffffffffffffffffffffffffffffff167fe0ed25582c4d86fd51bfe26383781fc8bbf5636813cbfdf93c440b5828c93040846040518082815260200191505060405180910390a2505050565b7f110b44e4bccdedbab0625f137765abddea8ae658791a82fff3fb5e80db2bad4881565b60006138d6600080848152602001908152602001600020600001614ffe565b9050919050565b61390e7f110b44e4bccdedbab0625f137765abddea8ae658791a82fff3fb5e80db2bad48613909614ccf565b6124eb565b613980576040517f08c379a00000000000000000000000000000000000000000000000000000000081526004018080602001828103825260118152602001807f4e6f74206120706f696e742061646d696e00000000000000000000000000000081525060200191505060405180910390fd5b6139a9816008600085815260200190815260200160002060030154614fb490919063ffffffff16565b60086000848152602001908152602001600020600301819055505050565b6139ed600080848152602001908152602001600020600201546139e8614ccf565b6124eb565b613a42576040517f08c379a00000000000000000000000000000000000000000000000000000000081526004018080602001828103825260308152602001806159026030913960400191505060405180910390fd5b613a4c8282614ed7565b5050565b613a817f110b44e4bccdedbab0625f137765abddea8ae658791a82fff3fb5e80db2bad48613a7c614ccf565b6124eb565b613af3576040517f08c379a00000000000000000000000000000000000000000000000000000000081526004018080602001828103825260118152602001807f4e6f74206120706f696e742061646d696e00000000000000000000000000000081525060200191505060405180910390fd5b613b4881600960008573ffffffffffffffffffffffffffffffffffffffff1673ffffffffffffffffffffffffffffffffffffffff16815260200190815260200160002060010154614fb490919063ffffffff16565b600960008473ffffffffffffffffffffffffffffffffffffffff1673ffffffffffffffffffffffffffffffffffffffff168152602001908152602001600020600101819055505050565b60035481565b613bc97f110b44e4bccdedbab0625f137765abddea8ae658791a82fff3fb5e80db2bad48613bc4614ccf565b6124eb565b613c3b576040517f08c379a00000000000000000000000000000000000000000000000000000000081526004018080602001828103825260118152602001807f4e6f74206120706f696e742061646d696e00000000000000000000000000000081525060200191505060405180910390fd5b6103e98484905010613cb5576040517f08c379a00000000000000000000000000000000000000000000000000000000081526004018080602001828103825260158152602001807f4c656e677468206d757374206265203c2031303031000000000000000000000081525060200191505060405180910390fd5b60005b84849050811015613dbb57613d408360096000888886818110613cd757fe5b9050602002013573ffffffffffffffffffffffffffffffffffffffff1673ffffffffffffffffffffffffffffffffffffffff1673ffffffffffffffffffffffffffffffffffffffff16815260200190815260200160002060010154614dbc90919063ffffffff16565b60096000878785818110613d5057fe5b9050602002013573ffffffffffffffffffffffffffffffffffffffff1673ffffffffffffffffffffffffffffffffffffffff1673ffffffffffffffffffffffffffffffffffffffff168152602001908152602001600020600101819055508080600101915050613cb8565b50807f473f8fafa9bb6f152b95565955b672a2c8b798b9c0a7c17f2e43bd4577f972de85858560405180806020018381526020018281038252858582818152602001925060200280828437600081840152601f19601f82011690508083019250505094505050505060405180910390a250505050565b613e627f3f12a51c1a5d4235e47a0365ddc220be1678ccffcdf71bfd6ee9c417f801e008613e5d614ccf565b6124eb565b613ed4576040517f08c379a00000000000000000000000000000000000000000000000000000000081526004018080602001828103825260138152602001807f4e6f742061207370656369616c2061646d696e0000000000000000000000000081525060200191505060405180910390fd5b600760008373ffffffffffffffffffffffffffffffffffffffff1673ffffffffffffffffffffffffffffffffffffffff16815260200190815260200160002060009054906101000a900460ff16613f93576040517f08c379a00000000000000000000000000000000000000000000000000000000081526004018080602001828103825260128152602001807f5573657220646f65736e2774206578697374000000000000000000000000000081525060200191505060405180910390fd5b6006548111158015613fa55750600081115b614017576040517f08c379a00000000000000000000000000000000000000000000000000000000081526004018080602001828103825260148152602001807f7465616d496420646f65736e277420657869737400000000000000000000000081525060200191505060405180910390fd5b6008600082815260200190815260200160002060040160009054906101000a900460ff166140ad576040517f08c379a00000000000000000000000000000000000000000000000000000000081526004018080602001828103825260118152602001807f5465616d206e6f74206a6f696e61626c6500000000000000000000000000000081525060200191505060405180910390fd5b80600960008473ffffffffffffffffffffffffffffffffffffffff1673ffffffffffffffffffffffffffffffffffffffff168152602001908152602001600020600201541415614165576040517f08c379a00000000000000000000000000000000000000000000000000000000081526004018080602001828103825260138152602001807f416c726561647920696e20746865207465616d0000000000000000000000000081525060200191505060405180910390fd5b6000600960008473ffffffffffffffffffffffffffffffffffffffff1673ffffffffffffffffffffffffffffffffffffffff1681526020019081526020016000206002015490506141d660016008600084815260200190815260200160002060020154614fb490919063ffffffff16565b600860008381526020019081526020016000206002018190555081600960008573ffffffffffffffffffffffffffffffffffffffff1673ffffffffffffffffffffffffffffffffffffffff1681526020019081526020016000206002018190555061426160016008600085815260200190815260200160002060020154614dbc90919063ffffffff16565b60086000848152602001908152602001600020600201819055508273ffffffffffffffffffffffffffffffffffffffff167f74c08ece62e2369a06a4cac8609fd31e7f3ae99e0dbedbc2bfcf0b9397d9a6918284604051808381526020018281526020019250505060405180910390a2505050565b6000600960008373ffffffffffffffffffffffffffffffffffffffff1673ffffffffffffffffffffffffffffffffffffffff16815260200190815260200160002060050160009054906101000a900460ff169050919050565b6143436000801b61433e614ccf565b6124eb565b6143b5576040517f08c379a00000000000000000000000000000000000000000000000000000000081526004018080602001828103825260128152602001807f4e6f7420746865206d61696e2061646d696e000000000000000000000000000081525060200191505060405180910390fd5b60065481111580156143c75750600081115b614439576040517f08c379a000000000000000000000000000000000000000000000000000000000815260040180806020018281038252600e8152602001807f7465616d496420696e76616c696400000000000000000000000000000000000081525060200191505060405180910390fd5b60016008600083815260200190815260200160002060040160006101000a81548160ff02191690831515021790555050565b61447f6000801b61447a614ccf565b6124eb565b6144f1576040517f08c379a00000000000000000000000000000000000000000000000000000000081526004018080602001828103825260128152602001807f4e6f7420746865206d61696e2061646d696e000000000000000000000000000081525060200191505060405180910390fd5b6145456144fc614ccf565b82600160009054906101000a900473ffffffffffffffffffffffffffffffffffffffff1673ffffffffffffffffffffffffffffffffffffffff166150139092919063ffffffff16565b50565b7f8736816fdbcc15d6cc3f6dcf60e42b0ef33eb02281d312c807a38b4ad09190c081565b60076000614578614ccf565b73ffffffffffffffffffffffffffffffffffffffff1673ffffffffffffffffffffffffffffffffffffffff16815260200190815260200160002060009054906101000a900460ff1615614633576040517f08c379a00000000000000000000000000000000000000000000000000000000081526004018080602001828103825260128152602001807f416c72656164792072656769737465726564000000000000000000000000000081525060200191505060405180910390fd5b60065483111580156146455750600083115b6146b7576040517f08c379a000000000000000000000000000000000000000000000000000000000815260040180806020018281038252600e8152602001807f496e76616c6964207465616d496400000000000000000000000000000000000081525060200191505060405180910390fd5b6008600084815260200190815260200160002060040160009054906101000a900460ff1661474d576040517f08c379a00000000000000000000000000000000000000000000000000000000081526004018080602001828103825260118152602001807f5465616d206e6f74206a6f696e61626c6500000000000000000000000000000081525060200191505060405180910390fd5b6147777f8736816fdbcc15d6cc3f6dcf60e42b0ef33eb02281d312c807a38b4ad09190c0836124eb565b6147e9576040517f08c379a00000000000000000000000000000000000000000000000000000000081526004018080602001828103825260138152602001807f4e4654206164647265737320696e76616c69640000000000000000000000000081525060200191505060405180910390fd5b60008290508073ffffffffffffffffffffffffffffffffffffffff16636352211e836040518263ffffffff1660e01b81526004018082815260200191505060206040518083038186803b15801561483f57600080fd5b505afa158015614853573d6000803e3d6000fd5b505050506040513d602081101561486957600080fd5b810190808051906020019092919050505073ffffffffffffffffffffffffffffffffffffffff16614898614ccf565b73ffffffffffffffffffffffffffffffffffffffff1614614921576040517f08c379a000000000000000000000000000000000000000000000000000000000815260040180806020018281038252601b8152602001807f4f6e6c79204e4654206f776e65722063616e207265676973746572000000000081525060200191505060405180910390fd5b8073ffffffffffffffffffffffffffffffffffffffff166342842e0e614945614ccf565b30856040518463ffffffff1660e01b8152600401808473ffffffffffffffffffffffffffffffffffffffff1681526020018373ffffffffffffffffffffffffffffffffffffffff1681526020018281526020019350505050600060405180830381600087803b1580156149b757600080fd5b505af11580156149cb573d6000803e3d6000fd5b50505050614a276149da614ccf565b30600454600160009054906101000a900473ffffffffffffffffffffffffffffffffffffffff1673ffffffffffffffffffffffffffffffffffffffff16614cd7909392919063ffffffff16565b614a31600b614d98565b6000614a3d600b614dae565b90506040518060c00160405280828152602001600081526020018681526020018573ffffffffffffffffffffffffffffffffffffffff1681526020018481526020016001151581525060096000614a92614ccf565b73ffffffffffffffffffffffffffffffffffffffff1673ffffffffffffffffffffffffffffffffffffffff16815260200190815260200160002060008201518160000155602082015181600101556040820151816002015560608201518160030160006101000a81548173ffffffffffffffffffffffffffffffffffffffff021916908373ffffffffffffffffffffffffffffffffffffffff1602179055506080820151816004015560a08201518160050160006101000a81548160ff021916908315150217905550905050600160076000614b6c614ccf565b73ffffffffffffffffffffffffffffffffffffffff1673ffffffffffffffffffffffffffffffffffffffff16815260200190815260200160002060006101000a81548160ff021916908315150217905550614bd36001600254614dbc90919063ffffffff16565b600281905550614c0360016008600088815260200190815260200160002060020154614dbc90919063ffffffff16565b6008600087815260200190815260200160002060020181905550614c25614ccf565b73ffffffffffffffffffffffffffffffffffffffff167f628915737ae1dae037b128d0892692746d4e63e2f72632781c0a08f7168b1be8868686604051808481526020018373ffffffffffffffffffffffffffffffffffffffff168152602001828152602001935050505060405180910390a25050505050565b6000614cc7836000018373ffffffffffffffffffffffffffffffffffffffff1660001b6150b5565b905092915050565b600033905090565b614d92846323b872dd60e01b858585604051602401808473ffffffffffffffffffffffffffffffffffffffff1681526020018373ffffffffffffffffffffffffffffffffffffffff1681526020018281526020019350505050604051602081830303815290604052907bffffffffffffffffffffffffffffffffffffffffffffffffffffffff19166020820180517bffffffffffffffffffffffffffffffffffffffffffffffffffffffff8381831617835250505050615125565b50505050565b6001816000016000828254019250508190555050565b600081600001549050919050565b600080828401905083811015614e3a576040517f08c379a000000000000000000000000000000000000000000000000000000000815260040180806020018281038252601b8152602001807f536166654d6174683a206164646974696f6e206f766572666c6f77000000000081525060200191505060405180910390fd5b8091505092915050565b614e6b81600080858152602001908152602001600020600001614c9f90919063ffffffff16565b15614ed357614e78614ccf565b73ffffffffffffffffffffffffffffffffffffffff168173ffffffffffffffffffffffffffffffffffffffff16837f2f8788117e7eff1d82e926ec794901d17c78024a50270940304540a733656f0d60405160405180910390a45b5050565b614efe8160008085815260200190815260200160002060000161521490919063ffffffff16565b15614f6657614f0b614ccf565b73ffffffffffffffffffffffffffffffffffffffff168173ffffffffffffffffffffffffffffffffffffffff16837ff6391f5c32d9c69d2a47ea670b442974b53935d1edc7fd64eb21e047a839171b60405160405180910390a45b5050565b6000614f798360000183615244565b60001c905092915050565b6000614fac836000018373ffffffffffffffffffffffffffffffffffffffff1660001b6152c7565b905092915050565b6000614ff683836040518060400160405280601e81526020017f536166654d6174683a207375627472616374696f6e206f766572666c6f7700008152506152ea565b905092915050565b600061500c826000016153aa565b9050919050565b6150b08363a9059cbb60e01b8484604051602401808373ffffffffffffffffffffffffffffffffffffffff16815260200182815260200192505050604051602081830303815290604052907bffffffffffffffffffffffffffffffffffffffffffffffffffffffff19166020820180517bffffffffffffffffffffffffffffffffffffffffffffffffffffffff8381831617835250505050615125565b505050565b60006150c183836152c7565b61511a57826000018290806001815401808255809150506001900390600052602060002001600090919091909150558260000180549050836001016000848152602001908152602001600020819055506001905061511f565b600090505b92915050565b6060615187826040518060400160405280602081526020017f5361666542455032303a206c6f772d6c6576656c2063616c6c206661696c65648152508573ffffffffffffffffffffffffffffffffffffffff166153bb9092919063ffffffff16565b905060008151111561520f578080602001905160208110156151a857600080fd5b810190808051906020019092919050505061520e576040517f08c379a000000000000000000000000000000000000000000000000000000000815260040180806020018281038252602a8152602001806158b2602a913960400191505060405180910390fd5b5b505050565b600061523c836000018373ffffffffffffffffffffffffffffffffffffffff1660001b6153d3565b905092915050565b6000818360000180549050116152a5576040517f08c379a00000000000000000000000000000000000000000000000000000000081526004018080602001828103825260228152602001806158616022913960400191505060405180910390fd5b8260000182815481106152b457fe5b9060005260206000200154905092915050565b600080836001016000848152602001908152602001600020541415905092915050565b6000838311158290615397576040517f08c379a00000000000000000000000000000000000000000000000000000000081526004018080602001828103825283818151815260200191508051906020019080838360005b8381101561535c578082015181840152602081019050615341565b50505050905090810190601f1680156153895780820380516001836020036101000a031916815260200191505b509250505060405180910390fd5b5060008385039050809150509392505050565b600081600001805490509050919050565b60606153ca84846000856154bb565b90509392505050565b600080836001016000848152602001908152602001600020549050600081146154af576000600182039050600060018660000180549050039050600086600001828154811061541e57fe5b906000526020600020015490508087600001848154811061543b57fe5b906000526020600020018190555060018301876001016000838152602001908152602001600020819055508660000180548061547357fe5b600190038181906000526020600020016000905590558660010160008781526020019081526020016000206000905560019450505050506154b5565b60009150505b92915050565b606082471015615516576040517f08c379a00000000000000000000000000000000000000000000000000000000081526004018080602001828103825260268152602001806158dc6026913960400191505060405180910390fd5b61551f85615664565b615591576040517f08c379a000000000000000000000000000000000000000000000000000000000815260040180806020018281038252601d8152602001807f416464726573733a2063616c6c20746f206e6f6e2d636f6e747261637400000081525060200191505060405180910390fd5b600060608673ffffffffffffffffffffffffffffffffffffffff1685876040518082805190602001908083835b602083106155e157805182526020820191506020810190506020830392506155be565b6001836020036101000a03801982511681845116808217855250505050505090500191505060006040518083038185875af1925050503d8060008114615643576040519150601f19603f3d011682016040523d82523d6000602084013e615648565b606091505b5091509150615658828286615677565b92505050949350505050565b600080823b905060008111915050919050565b606083156156875782905061573c565b60008351111561569a5782518084602001fd5b816040517f08c379a00000000000000000000000000000000000000000000000000000000081526004018080602001828103825283818151815260200191508051906020019080838360005b838110156157015780820151818401526020810190506156e6565b50505050905090810190601f16801561572e5780820380516001836020036101000a031916815260200191505b509250505060405180910390fd5b9392505050565b828054600181600116156101000203166002900490600052602060002090601f016020900481019282601f1061578457805160ff19168380011785556157b2565b828001600101855582156157b2579182015b828111156157b1578251825591602001919060010190615796565b5b5090506157bf9190615843565b5090565b828054600181600116156101000203166002900490600052602060002090601f016020900481019282601f1061580457803560ff1916838001178555615832565b82800160010185558215615832579182015b82811115615831578235825591602001919060010190615816565b5b50905061583f9190615843565b5090565b5b8082111561585c576000816000905550600101615844565b509056fe456e756d657261626c655365743a20696e646578206f7574206f6620626f756e6473416363657373436f6e74726f6c3a2073656e646572206d75737420626520616e2061646d696e20746f206772616e745361666542455032303a204245503230206f7065726174696f6e20646964206e6f742073756363656564416464726573733a20696e73756666696369656e742062616c616e636520666f722063616c6c416363657373436f6e74726f6c3a2073656e646572206d75737420626520616e2061646d696e20746f207265766f6b65416363657373436f6e74726f6c3a2063616e206f6e6c792072656e6f756e636520726f6c657320666f722073656c66a26469706673582212200c8294556cbde9fc152174fdbf5dbc19de840ef3a6595b08bedbbc133f7c613a64736f6c634300060c0033",
  "linkReferences": {},
  "deployedLinkReferences": {}
}